000000000025  C1102201435
000002830625  C416250C2883754              930405015384'AAINA NADHIRAH BINTI ROSHDAN                                                   003453380000000000000000        0303201408068020491823
000002830625  C416250C2883755              931222045542'AQILAH KHAIRUNNISA BINTI HASAN                                                 003453380000000000000000        0303201404024020914983
000002830625  D416250D2883756IBD13035181   920422115492'AZYYATI BINTI AZIZ                                                             000546740000000000000000        0303201413035020508517
000002830625  B416250B2883757DI01          920626065407ABDUL AZIZ BIN RAZALI                                                           003226970000000000000000        0303201406064021160863
000002830625  D416250D2883758BBA12033159   930706115397ABDUL AZIZ BIN SHAHARUDDIN                                                      001491670000000000000000        0303201413017021413627
000002830625  D416250D2883759034675        910913065259ABDUL HANNAN ASHRAWI BIN MOHAMAD                                                002706710000000000000000        0303201404024020951391
000002830625  B416250B2883760              920413106105ABDUL HAYYAN BASIT BIN MD. AKHIR                                                003474800000000000000000        0303201412038025269190
000002830625  B416250B2883761MBA11030071   920302025329ABDUL JALILIL HUZAIFI BIN JAMALUDDIN                                            003226600000000000000000        0303201413017021472226
000002830625  D416250D2883762029859        900223115141ABDUL LATIF BIN MOHD ZAIN                                                       003221140000000000000000        0303201413017020971492
000002830625  D416250D2883763DBA13034883   920226115639ABDUL MANAF BIN ZAKARIA                                                         002953380000000000000000        0303201413035020269845
000002830625  D416250D2883764034486        941110065505ABDUL MU'IZ BIN AZMEE                                                           002706710000000000000000        0303201406028024712988
000002830625  A416250A2883765027489        900319086437ABDUL MUHSIN BIN MOHAMAD HASAN                                                  003226600000000000000000        0303201413017021323876
000002830625  B416250B2883766              920816015881ABDUL RAHMAN BIN MOHD RABU                                                      003226600000000000000000        0303201401023020484219
000002830625  D416250D2883767              920624105487ABDUL SAMAD BIN MOHDAR                                                          003207400000000000000000        0303201413017021286739
000002830625  C416250C2883768MS1119528494  930606115437ABDUL SYAHLEM BIN ABD RAZAK                                                     003453380000000000000000        0303201413017021419884
000002830625  B416250B2883769030513        911230126627ABDUL TAHIR BIN RUJIH                                                           003226600000000000000000        0303201410043020165456
000002830625  D416250D2883770035594        920529025593ABDUL WAFI BIN MAHAMAD PARAK                                                    003207400000000000000000        0303201413017021286751
000002830625  C416250C2883771MA1114511979  930318086467ABDULLAH AFIFI BIN ASNARI                                                       003206710000000000000000        0303201408031020606490
000002830625  D416250D2883772              900430146311ABU AMIRUZAIED BIN ABD RAZAK                                                    002953380000000000000000        0303201412122020056545
000002830625  A416250A2883773TBA10027970   911218065489ABU HURAIRAH BIN AHMAD@ABDUL RAHHIM                                             003474800000000000000000        0303201413017021323930
000002830625  B416250B2883774030703        900227137743ABU HURAIRAH BIN BUANG                                                          003226970000000000000000        0303201413017021472230
000002830625  D416250D2883775034600        900523015839ABU MUHAMMAD SAIFULLAH BIN ABU KHALID                                           002707400000000000000000        0303201413017028432177
000002830625  C416250C2883776TIADA         920821115086ADIBAH HANUN BINTI IBRAHIM                                                      003207400000000000000000        0303201413017028327527
000002830625  A416250A2883777              881121086254ADIBATUN NABILAH BINTI ABDULLAH                                                 003226600000000000000000        0303201408031020329575
000002830625  B416250B2883778              920324025290ADILAH BINTI BHARUDIN @MD.RAZALI                                                003226600000000000000000        0303201402048020271418
000002830625  B416250B2883779029816        920531145850ADZLIA NASHREEN BINTI ADNAN                                                     003226600000000000000000        0303201405021020239803
000002830625  B416250B2883780030264        900316035140AFAF HILWANI BINTI YAHAYA                                                       003233750000000000000000        0303201403027020324041
000002830625  D416250D2883781              941024035932AFIFAH SYAHIRAH BINTI IDRIS                                                     002706710000000000000000        0303201403036021031474
000002830625  D416250D2883782              920811105298AFINA BINTI ZON HISHAM                                                          002953380000000000000000        0303201412029020481477
000002830625  A416250A2883783027020        900820095038AFIQAH BINTI ADAM MALEK                                                         003226600000000000000000        0303201409010020390126
000002830625  A416250A2883784              910519065162AFIQAH BINTI SALIHFUDIN                                                         003226600000000000000000        0303201413017021323970
000002830625  D416250D2883785              930730065342AGNES LOH ZI HAN                                                                002706710000000000000000        0303201406028024710274
000002830625  A416250A2883786BBA10028046   901212145104AGNES NESA MALAR A/P KANDAN XAVIER                                              003226600000000000000000        0303201413017021323981
000002830625  B416250B2883787              910315035711AHMAD  SHAKIRAN BIN NIPAH                                                       003226970000000000000000        0303201403045022145379
000002830625  C416250C2883788              930624136127AHMAD AIMAN BIN MURSHIDI                                                        000546740000000000000000        0303201411013025876095
000002830625  A416250A2883789              900507075495AHMAD AL HAFIZ BIN ROSLI                                                        003226600000000000000000        0303201413017021324009
000002830625  D416250D2883790DBA13035812   920116115427AHMAD AL KASYAF BIN ABD RAHMAN                                                  003453380000000000000000        0303201413017021330324
000002830625  D416250D2883791940423065667  940423065667AHMAD AMIRUL NAIM BIN MOHAMAD                                                   003206710000000000000000        0303201406055020305246
000002830625  A416250A2883792028278        891211025059AHMAD ARIFF BIN ABDUL AZIZ                                                      003226600000000000000000        0303201402011020730147
000002830625  D416250D2883793              921013146495AHMAD ARIFF BIN AHMAD KHIRRI                                                    003207400000000000000000        0303201412047020312842
000002830625  D416250D2883794034835        940528065751AHMAD ASYRAF BIN ABAS                                                           002706710000000000000000        0303201406046020280715
000002830625  C416250C2883795IBB12032843   910203036285AHMAD AZIM BIN ABDULLAH                                                         003207400000000000000000        0303201413017021088983
000002830625  A416250A2883796              901204126253AHMAD BIN SABIT                                                                 003226600000000000000000        0303201416018020193776
000002830625  C416250C2883797              930816146549AHMAD FADHLI BIN ZAILUDIN @ ZAILUDDIN                                           001043780000000000000000        0303201414041020590480
000002830625  C416250C2883798DBA12033247   890527065191AHMAD FAIZ BIN YUSSOF                                                           003453380000000000000000        0303201413017020902962
000002830625  C416250C2883799IBA12033168   901207115015AHMAD FAKKARUDIN BIN WAHAB                                                      003207400000000000000000        0303201413017021009844
000002830625  B416250B2883800030695        900820115545AHMAD FAQRUKHAIRI BIN NAG MUDDIN                                                003233750000000000000000        0303201413044020128241
000002830625  D416250D2883801IBC034991     920916115281AHMAD FARHAN BIN MOHD ROS                                                       003207400000000000000000        0303201413017021338182
000002830625  C416250C2883802MBC12032816   920223015077AHMAD FAUZI BIN SUPONO                                                          003206710000000000000000        0303201401135020045410
000002830625  D416250D2883803034759        941104035609AHMAD FIKRI BIN ADANAN                                                          003207400000000000000000        0303201403054020579559
000002830625  C416250C2883804TBA12032464   910429085469AHMAD FIRDAUS KHAIR BIN AHMAD KHAIRI                                            001043780000000000000000        0303201408013023503116
000002830625  D416250D2883805034800        931022065813AHMAD HAFIY BIN SAIFUZZAMAN                                                     000100000000000000000000        0303201406091020034080
000002830625  D416250D2883806              930731115639AHMAD HAFIZI BIN ARIFFIN                                                        003453380000000000000000        0303201413017028429281
000002830625  D416250D2883807              940329035277AHMAD HAKIM BIN YUSOF                                                           003206710000000000000000        0303201403036021032346
000002830625  A416250A2883808028169        891026115853AHMAD IKMAL HAKIM BIN AB GHANI                                                  003474800000000000000000        0303201413017020887862
000002830625  C416250C2883809              921202035233AHMAD KHAIRI BIN MUHAMAD                                                        003206710000000000000000        0303201403090020670170
000002830625  B416250B2883810030710        880428115465AHMAD MUZAKHIR AMIER BIN RAMLEE                                                 003474800000000000000000        0303201413017020809392
000002830625  C416250C28838112011845498    930415035661AHMAD MUZAKHIR BIN YUSOF                                                        003206710000000000000000        0303201403090020586424
000002830625  D416250D2883812              930830035925AHMAD NABIL B AZIZ                                                              002707400000000000000000        0303201403072021095738
000002830625  D416250D2883813035783        940914036027AHMAD NABIL BIN SAHFUL BAHARI                                                   000985890000000000000000        0303201403027020628547
000002830625  B416250B2883814              910804115587AHMAD NAZIRUL BIN AZMI SOLAH                                                    003226970000000000000000        0303201413035020229115
000002830625  D416250D2883815DBA13035728   910117115745AHMAD RAZLAN BIN ABD RAHIM                                                      003453380000000000000000        0303201406082020060718
000002830625  B416250B2883816              920207125575AHMAD RIFAIE BIN MAT TABIEE                                                     003226600000000000000000        0303201413017021270733
000002830625  B416250B2883817              910518035957AHMAD RUSHDAN BIN MAT RIFIN                                                     003233750000000000000000        0303201403036020894598
000002830625  B416250B2883818              901104045157AHMAD SAYUTY BIN AHMAD ROAINI                                                   003226600000000000000000        0303201405021020138441
000002830625  D416250D2883819              930303115149AHMAD SHAALAM BIN YUSOF                                                         002707400000000000000000        0303201413053020179714
000002830625  C416250C2883820              920506085083AHMAD SHAHRUL NAIM BIN AHMAD NAWAWI                                             000386960000000000000000        0303201413017021379499
000002830625  B416250B2883821              910819065455AHMAD SUHAIMI BIN OSMAN                                                         003226600000000000000000        0303201413017021472288
000002830625  B416250B2883822              900617115515AHMAD SYAFIQ BIN CHE ZOLKIFLI                                                   003233750000000000000000        0303201413035020334312
000002830625  D416250D2883823              940803025771AHMAD SYAHIR BIN MAT NAYAN                                                      003207400000000000000000        0303201402039024828739
000002830625  D416250D2883824              910704115117AHMAD SYAZLAN FAIZ BIN AWANG NAYAN                                              003206710000000000000000        0303201413017021089120
000002830625  C416250C2883825              930523115693AHMAD SYAZWAN BIN MOHAMAD @ SULAIMAN                                            003453380000000000000000        0303201413035020547240
000002830625  C416250C2883826IBC12033157   911118115311AHMAD SYUKRIMAN BIN MOHD TAUFEK                                                 003220660000000000000000        0303201413017021089142
000002830625  D416250D2883827              930627035487AHMAD TAMIMI BIN ZULKIFLI                                                       002953380000000000000000        0303201403054020574998
000002830625  D416250D2883828034947        940803035523AHMAD TAQIYUDDIN B SUKRI                                                        002707400000000000000000        0303201403111020094297
000002830625  A416250A2883829028190        900527138529AHMAD ZAIDI BIN KADIR                                                           003226600000000000000000        0303201413017021324072
000002830625  B416250B2883830              910513115755AHMAD ZILALUL KHAIRI BIN ADNAN                                                  003226600000000000000000        0303201413017021472305
000002830625  D416250D2883831              940105035075AHMAD ZUHAIRI BIN RUBAIDULLAH                                                   002707400000000000000000        0303201403027020763033
000002830625  A416250A2883832              910922065285AHMAD ZUHDI BIN JOHAN                                                           003226600000000000000000        0303201406019020838407
000002830625  B416250B2883833MS1019551830  910427115054AIDA AMIRA BINTI AB RAZAK @ AB AZIZ                                             003474800000000000000000        0303201413035020491260
000002830625  C416250C2883834032853        920801115396AIDA SAKINAH BINTI ANUAR RAZAK                                                  003219940000000000000000        0303201413017021248653
000002830625  C416250C2883835              910714115188AIDA SHAFIYAH BINTI MUHAMAD SALIM                                               003219940000000000000000        0303201413017021089221
000002830625  D416250D2883836              941012035716AIDAYANA BINTI SHAMSUDIN                                                        002706710000000000000000        0303201403063020303676
000002830625  B416250B2883837              911003016778AIMI QAHIRAH BINTI RAHMAN                                                       003226600000000000000000        0303201413017021472331
000002830625  D416250D2883838IBE13035154   940313016346AIMI SYAHIRAH BINTI RASHID                                                      003207400000000000000000        0303201413017028427993
000002830625  C416250C2883839              930722065908AIN NAJIHA BINTI SHAHARIN                                                       003219940000000000000000        0303201406019021064918
000002830625  B416250B2883840              920529125500AIN SAKINAH BINTI ABDUL KHALID                                                  003226970000000000000000        0303201413017021472345
000002830625  A416250A2883841BBA10027526   880808045366AIN SHAFERA BINTI ABDUL YADZID                                                  003226600000000000000000        0303201413017021324097
000002830625  B416250B2883842030268        900827115724AINA NAJWA BT IBNI AMIN                                                         003233750000000000000000        0303201413044020145493
000002830625  D416250D2883843              920124115646AINATUL RODHIAH BINTI MOHD NAIM                                                 003207400000000000000000        0303201413017021347186
000002830625  D416250D2883844              940713065876AINI ATIQAH BINTI MOHD ROSDI                                                    000543780000000000000000        0303201406073025328879
000002830625  A416250A2883845028376        890115085698AINI NURSHAHIRA AHMAD HANAFIAH                                                  003226600000000000000000        0303201408013023358790
000002830625  C416250C2883846              930103115646AININA BAZURA BINTI ABDULLAH ZAWAWI                                             003453380000000000000000        0303201413017028335660
000002830625  D416250D2883847035530        940825016470AININA BINTI ROSLI                                                              002706710000000000000000        0303201401032020537350
000002830625  B416250B2883848              920130065104AINUL ADIBA BINTI SALEH                                                         000548240000000000000000        0303201413017021472367
000002830625  D416250D2883849              920308085648AINUL BASIRAH BINTI HASSAN                                                      003207400000000000000000        0303201408013023450486
000002830625  D416250D2883850              940715085213AINUL HILMAN BIN KAMARUL BAHRIN                                                 002706710000000000000000        0303201408059020313254
000002830625  C416250C2883851              910906035238AINUL MUKMINAH BINTI ADAM                                                       003206710000000000000000        0303201403027020591280
000002830625  D416250D2883852MBA13035704   921124105960AINUR ASHIKIN BINTI ZULKAFLI                                                    003206710000000000000000        0303201412092022812333
000002830625  A416250A2883853              911004045466AISAH BINTI REDUAN                                                              003226600000000000000000        0303201413017021324139
000002830625  D416250D2883854              910415115778AISHA NORFITRIAH BINTI ZAMRI                                                    003206710000000000000000        0303201413017021137168
000002830625  D416250D2883855              921215115582AISHAH NADIAH BINTI MAT HUSAIN                                                  002707400000000000000000        0303201413017021287181
000002830625  C416250C2883856IBC12033019   920715115066AISHAHTON NAJMIAH BINTI HARUN @ MUSA                                            003207400000000000000000        0303201413017028332271
000002830625  D416250D2883857ABA12032903   930128115140AISHATUL AMIERA BINTI ABDUL HALIM                                               003467620000000000000000        0303201413017028411510
000002830625  C416250C2883858032252        930826855066AISYAH BINTI ABDUL GHANI                                                        003207400000000000000000        0303201401032020492727
000002830625  C416250C2883859              930331145900AISYAH BINTI MOHD RADZI                                                         003453380000000000000000        0303201412225020023087
000002830625  C416250C2883860032775        920819017348AIZATHUL HANI BT ABD HAMID                                                      003206710000000000000000        0303201401050020286240
000002830625  C416250C2883861              921008075346AJIRAH BINTI MD ASRAF                                                           003206710000000000000000        0303201407034024540481
000002830625  B416250B2883862MS1018551586  910130015941AKMAL HAKIM BIN NGASIMAN                                                        003474800000000000000000        0303201405058020259260
000002830625  A416250A2883863              880207086728ALEEN FADHILAH BT MOHD SHAHBUDIN                                                003226600000000000000000        0303201413017020809203
000002830625  C416250C2883864              931125115182ALIA HAZWANI BINTI AHMAD @ HAMID                                                003453380000000000000000        0303201403018021430122
000002830625  A416250A2883865              910726075187ALIF FALNI BIN HASSAN SHUKRI                                                    003226600000000000000000        0303201413017021324176
000002830625  D416250D2883866              931105115070ALIFAH ILIYANA BINTI MOHD SHAIRI                                                002707400000000000000000        0303201413035020301231
000002830625  D416250D2883867              940531035764ALIFAH ILYANA BINTI ABDULLAH                                                    002707400000000000000000        0303201403027020592710
000002830625  B416250B2883868030393        900930095055ALIFF FIKRI BIN AZMI                                                            003226600000000000000000        0303201409010020488330
000002830625  A416250A2883869              900721016998ALLIA AMIRA BINTI ASMADI                                                        003226600000000000000000        0303201413017021324187
000002830625  B416250B2883870              911118035362ALWANI NUR ADNI BINTI MOHAMAD ASRI                                              003226600000000000000000        0303201403054020476948
000002830625  D416250D2883871IBD13035405   870220115328ALYANI BINTI GHANI                                                              002706710000000000000000        0303201412038025169593
000002830625  C416250C2883872              930119115536AMALIAH BINTI YUSOF                                                             003206710000000000000000        0303201413053020123806
000002830625  D416250D2883873              930505036692AMALIN ASILAH BINTI IBRAHIM                                                     002707400000000000000000        0303201403102020085490
000002830625  D416250D2883874035086        921207035574AMALINA BINTI AZIZ                                                              003206710000000000000000        0303201403063020185468
000002830625  B416250B2883875              900722137484AMALINA BINTI MOHAMAD PUDI                                                      003226600000000000000000        0303201413017020976489
000002830625  C416250C2883876030253        921118035038AMANI BINTI MUKTAR HAYEEKALENG                                                  003233970000000000000000        0303201403018021092412
000002830625  C416250C2883877TBA12033115   931015066092AMANINA BINTI ABU HASSAN                                                        003453380000000000000000        0303201406028024605635
000002830625  B416250B2883878              921018115700AMIE FARA EYANI BINTI ALIAS                                                     003226600000000000000000        0303201413017021274069
000002830625  B416250B2883879IBE11030745   920118086316AMIE RUZILA BINTI AZMI YUDEN                                                    003226970000000000000000        0303201412056022600572
000002830625  D416250D2883880              920521015227AMINUDDIN BIN SAHAMED                                                           003206710000000000000000        0303201413017021330454
000002830625  B416250B2883881030769        910320605029AMIR FAISAL BIN AWANG                                                           003226600000000000000000        0303201413017024801826
000002830625  C416250C2883882              930612145405AMIR MOKHTAR BIN MAT ISA                                                        003206710000000000000000        0303201414014021119019
000002830625  D416250D2883883              940925035900AMIRA BINTI MUKTAR HAYEEKALENG                                                  002707400000000000000000        0303201403027020752067
000002830625  B416250B2883884              900326105210AMIRA FARAHA BINTI AMIR HAMZAH                                                  003226600000000000000000        0303201413017021472450
000002830625  B416250B2883885              920225115450AMIRA HUDA BINTI OMAR                                                           003474800000000000000000        0303201413053020040218
000002830625  C416250C2883886033148        911128115024AMIRA SYAZWANI BINTI MOHD AZAM                                                  003219940000000000000000        0303201413017021089466
000002830625  A416250A2883887              911003025228AMIRAH HUSNA BINTI HALIM                                                        003226600000000000000000        0303201413017021324229
000002830625  B416250B2883888MS1017521896  920307135877AMIRUL AKMAL BIN NOR YUSRE                                                      003226600000000000000000        0303201413017021472461
000002830625  C416250C2883889032715        910129105421AMIRUL ARIFIN BIN AHMAD                                                         003206710000000000000000        0303201412010024614205
000002830625  B416250B2883890              920913035075AMIRUL AZIM BIN PUSAIRI                                                         003226600000000000000000        0303201401041020360059
000002830625  D416250D2883891030381        920409115041AMIRUL B AB GHAFAR                                                              003221140000000000000000        0303201413017024827836
000002830625  C416250C2883892ABA12032333   930105055165AMIRUL BIN RAMLI                                                                003453380000000000000000        0303201405058020312705
000002830625  C416250C2883893ADAO32363     930716086067AMIRUL EKHWAN BIN MD ROZAMAN                                                    003453380000000000000000        0303201402048020559760
000002830625  C416250C2883894              921006085495AMIRUL FAIZ BIN SHAPII                                                          003206710000000000000000        0303201408068020629165
000002830625  C416250C2883895              910905105935AMIRUL MUKMIN BIN ARIFIN                                                        003219940000000000000000        0303201412056022490060
000002830625  D416250D2883896034543        940216015157AMIRUN AHMAD BIN ABRAR AHMAD                                                    002707400000000000000000        0303201401117020083495
000002830625  D416250D2883897              940826045003AMRI HANAFI BIN NORHATTA                                                        003453380000000000000000        0303201405030020293890
000002830625  A416250A2883898              910629085068ANA SYAFIQAH BINTI ZAHARI                                                       003474800000000000000000        0303201413017021324230
000002830625  B416250B2883899DC10          911023106041ANDREW JAMES QUAR KHEI AUNN                                                     003474800000000000000000        0303201413017021472503
000002830625  B416250B2883900030025        910617125771ANDRYENO BIN THOMAS                                                             003226600000000000000000        0303201413017021472525
000002830625  C416250C2883901              910426126034ANDY AZLINA BINTI A RUSTAM                                                      003206710000000000000000        0303201410016020607351
000002830625  A416250A2883902MBC10026795   910402136430ANGELA MUJAN MARTIN                                                             003226600000000000000000        0303201413017021324255
000002830625  A416250A2883903LBA10027848   900628125022ANILA SARA GEORGE                                                               003226600000000000000000        0303201413017021324270
000002830625  D416250D2883904              930902025014ANIS  FARAHIEN  BINTI  ABDUL AZIZ                                               002707400000000000000000        0303201402075020392443
000002830625  C416250C2883905MS1111500294  930709015316ANIS AMIRAH BINTI NURILHUDA                                                     003453380000000000000000        0303201401023020535560
000002830625  C416250C2883906MS1116517727  930224145534ANIS ATHIRAH BINTI KHARUDDIN                                                    003453380000000000000000        0303201401014025183364
000002830625  A416250A2883907IBD10027414   901101065662ANIS FADZILLAH BT ASARY                                                         003226600000000000000000        0303201413017021324281
000002830625  C416250C2883908              910126085672ANIS SURAYA BT BURHANUDDIN                                                      003219940000000000000000        0303201408031020313972
000002830625  D416250D2883909              920627085418ANIS SYUHADA BINTI DRANI                                                        003206710000000000000000        0303201408040028173965
000002830625  B416250B2883910              911014155036ANIS ZALIA RAIHAN BINTI ABDUL HAMID                                             003226970000000000000000        0303201413017021472551
000002830625  A416250A2883911              860707526082ANTHEA ABIGAIL EDIP                                                             003226600000000000000000        0303201411022020146158
000002830625  A416250A2883912026887        891118125389ARDIAN BIN TANGNGA                                                              003226600000000000000000        0303201413017020900315
000002830625  D416250D2883913035803        911102035958ARIFAH BINTI OMAR HAMDAN                                                        003207400000000000000000        0303201403036020729480
000002830625  C416250C2883914033043        911103115757ARIFI SYA'ARI BIN OMAR@GHAZALI                                                  003206710000000000000000        0303201413026020436093
000002830625  B416250B2883915              920520036050ASFARINA BINTI ZUBIR                                                            003233750000000000000000        0303201403045022194604
000002830625  C416250C2883916MS1116541764  921030016377ASHMIR AIZAD BIN ABD.JABAR                                                      002953380000000000000000        0303201401078020333969
000002830625  A416250A2883917              911011105471ASHRAF FARHAN BIN ABU ZARIM                                                     003226600000000000000000        0303201414195020086831
000002830625  C416250C2883918MBB11030451   920613135242ASHYILA BINTI LAMAN                                                             003219940000000000000000        0303201413017021472562
000002830625  A416250A2883919027808        881122035010ASMA FATIHAH BINTI ABD RAZAK                                                    003226600000000000000000        0303201403036020340173
000002830625  C416250C2883920              920812146198ASMA' A'MIRA BINTI ALIAS                                                        003206710000000000000000        0303201402084020347833
000002830625  C416250C2883921              921106085898ASMASALSABILA BINTI MOHD ZAINI                                                  003453380000000000000000        0303201408077020201515
000002830625  B416250B2883922              910504025440ASMINA BINTI ZULKIFLEE                                                          003233750000000000000000        0303201407043020336812
000002830625  C416250C2883923SE03091020    920807125640ASMIRA BINTI ANDRYANTO                                                          003206710000000000000000        0303201410025020882795
000002830625  B416250B2883924              920602036150ATHIRAH BINTI AB RAZAK                                                          003226970000000000000000        0303201403072020911276
000002830625  A416250A2883925              891014035696ATIFAH BINTI MOHD YUSOF                                                         003474800000000000000000        0303201403027020375404
000002830625  D416250D2883926MBC13035039   911024146336ATIKAH BINTI KAMARUDIN                                                          003206710000000000000000        0303201412056022588079
000002830625  D416250D2883927IBD13035302   941128015346ATIQAH BINTI ABDUL AZIZ                                                         003207400000000000000000        0303201401041020586977
000002830625  C416250C2883928ABA12032685   931225075114AUFA NABILA BINTI AMRAN                                                         003453380000000000000000        0303201408022020512381
000002830625  B416250B2883929029884        900523025586AWANIS BINTI ABD WAHAB                                                          003226600000000000000000        0303201402011020963384
000002830625  D416250D2883930IBB13035611   920301015452AYMAN SHAHIM BINTI HUZAHIM                                                      000100000000000000000000        0303201413017021287660
000002830625  D416250D2883931              940316075421AZAD IKLAS BIN ISMAIL                                                           002706710000000000000000        0303201402039024825959
000002830625  C416250C2883932              930408035196AZAH ZANARIAH BINTI MOHD NOOR                                                   003453380000000000000000        0303201403102020025001
000002830625  A416250A2883933              910615015210AZELA BINTI ABU BAKAR                                                           003226600000000000000000        0303201413017021324371
000002830625  D416250D2883934035315        910810035700AZIMAH BINTI AB RAHMAN                                                          003207400000000000000000        0303201403036020200441
000002830625  B416250B2883935              911002035002AZIMAH BINTI MAT AYOB                                                           003474800000000000000000        0303201413017021472615
000002830625  A416250A2883936              900416086156AZIRATUL FAMIEZA BINTI HAJI ABDUL MALEK                                         003226600000000000000000        0303201413017021324382
000002830625  A416250A2883937              910914016782AZIZAH BINTI BAHARUDIN                                                          003226600000000000000000        0303201413017021324396
000002830625  C416250C2883938032494        910930025750AZIZAH BINTI MAHMUD                                                             003206710000000000000000        0303201402048020404944
000002830625  C416250C2883939              930204025869AZIZUL BIN ROZALI                                                               003206710000000000000000        0303201402084020349262
000002830625  D416250D2883940035643        930414017437AZNUR FAHMI BIN DARMO                                                           002706710000000000000000        0303201413017028430532
000002830625  C416250C2883941              920815136198AZREEN NORSYAFIZA BINTI KUSAIDI                                                 003219940000000000000000        0303201411013025870653
000002830625  C416250C2883942              920703045603AZRI BIN AMRAN                                                                  003207400000000000000000        0303201402011020776912
000002830625  A416250A2883943MBA10027111   900515125616AZRINA BINTI ANSAR                                                              003226600000000000000000        0303201410025020772729
000002830625  C416250C2883944MBC12032808   900811035033AZRULIE BIN ABDULLAH                                                            003206710000000000000000        0303201403036020626749
000002830625  B416250B2883945              910914036003AZWAN BIN AHMAD                                                                 003474800000000000000000        0303201403090020580626
000002830625  A416250A2883946              900921125785AZWAN BIN PUDDIN                                                                003226600000000000000000        0303201413017021324449
000002830625  D416250D2883947035017        930619035209BAHARUDDIN BIN AB JAMIL                                                         002706710000000000000000        0303201403027020633203
000002830625  B416250B2883948              910909016200BALAMMAL A/P MANI                                                               003226600000000000000000        0303201401023020487091
000002830625  D416250D2883949MS1218532246  940719025808BASHIRA BINTI OMAR                                                              002706710000000000000000        0303201402039024821117
000002830625  C416250C2883950              930122115502C.W.NADHIRAH BT C.W.MOHD ZAWAWI                                                 003453380000000000000000        0303201413044021136249
000002830625  D416250D2883951              930807135282CATHERINE KONG SIENG SIENG                                                      002706710000000000000000        0303201411068020016479
000002830625  B416250B2883952910420135941  910420135941CHAI YU KEE                                                                     003474800000000000000000        0303201413017021472681
000002830625  C416250C2883953ABB12032489   920125065054CHAN CHI YEE                                                                    003453380000000000000000        0303201406046020254027
000002830625  941625092883954026447        890128115366CHE FAKHRIAH BT MAMAT                                                           003229980000000000000000        0303201413017021139947
000002830625  D416250D2883955DBA13035582   920517115401CHE KHIR AMIN BIN CHE MUHAMMAD                                                  003453380000000000000000        0303201413017021287817
000002830625  D416250D2883956MBA13035554   940819115384CHE KU ANIS AMIRA BINTI CHE KU AZMAN                                            002706710000000000000000        0303201413026020593782
000002830625  D416250D2883957              921120115192CHE KU NUR SALIEHAH BINTI CHE KU HASSAN                                         002707400000000000000000        0303201413017021330634
000002830625  C416250C2883958033170        910920035381CHE MOHAMAD AZIM BIN MOHAMMAD                                                   001485570000000000000000        0303201406082020041096
000002830625  D416250D2883959035134        940125036147CHE MOHD NURULHADI BIN CHE SA'ARI                                               003207400000000000000000        0303201403090020701848
000002830625  C416250C2883960LBA12033180   931109115545CHE MUHAMMAD AMIR SYAFIQ BIN CHE MUSA                                           003206710000000000000000        0303201413017021421503
000002830625  C416250C2883961032778        921013025204CHE NATASHA BINTI ISMAIL                                                        003206710000000000000000        0303201402011021121899
000002830625  B416250B2883962030795        900805115686CHE NOR FATIHAH BINTI CHE MAT ZIN                                               003226970000000000000000        0303201413017020977052
000002830625  B416250B2883963              921205035570CHE NUR AFIQAH BT MOHAMMAD                                                      003226600000000000000000        0303201406019021001215
000002830625  D416250D2883964035212        910725115570CHE SITI HAJAR BINTI CHE OTHMAN                                                 002706710000000000000000        0303201413017028427711
000002830625  D416250D2883965              910204036236CHE SITI NURAZYANI BINTI CHE IBRAHIM                                            002706710000000000000000        0303201403054020432073
000002830625  A416250A2883966              911129115464CHE SUDARWATY BINTI CHE MAT                                                     003226600000000000000000        0303201413035020440406
000002830625  B416250B2883967              920612095162CHE SYARIDAH BT CHE SURIA                                                       003226600000000000000000        0303201413017021472708
000002830625  D416250D2883968DBA13035458   901213035417CHE ZAKARIA BIN CHE RAHIM                                                       002953380000000000000000        0303201403102020125993
000002830625  C416250C2883969LBA12032468   920416145054CHEN KAH MUN                                                                    003206710000000000000000        0303201412092022918531
000002830625  C416250C2883970              920109105239CHEW XIANG LENG                                                                 001733160000000000000000        0303201412092022921402
000002830625  C416250C2883971032460        901013036044CIK AZIZAH BINTI RANI                                                           003219940000000000000000        0303201413017021089996
000002830625  C416250C2883972BBA12033186   920930126905CYRIL RYAN MODERIN                                                              003206710000000000000000        0303201410016020926632
000002830625  D416250D2883973              930620095030DALWANA TYEFLA BINTI YUSSOF                                                     002706710000000000000000        0303201402066023619005
000002830625  D416250D2883974              930404125530DASHINA CHANDRA REKHA                                                           003206710000000000000000        0303201410016021000197
000002830625  C416250C2883975IBE12033236   910131126336DAYANA BINTI CHACHO                                                             000546950000000000000000        0303201410016020608716
000002830625  D416250D2883976IBB13035272   920709025910DAYANG NABIELA BINTI ZULKIPLI                                                   003207400000000000000000        0303201402011020718167
000002830625  B416250B2883977MS1015515227  921231125270DAYANG NURAZANIAH BINTI OSMAN                                                   003226600000000000000000        0303201413017021472756
000002830625  A416250A2883978BBA10026843   900116125141DEACON CHEW                                                                     003226970000000000000000        0303201413017021400499
000002830625  A416250A2883979BBA028173     910913135616DEBORAH UBUNG NGERONG                                                           003226600000000000000000        0303201413017021324528
000002830625  C416250C2883980033172        931211126259DESTER JUIN                                                                     003206710000000000000000        0303201410016020792479
000002830625  B416250B2883981              921113145342DIYANA SABRINA BINTI BAHARUM                                                    003226970000000000000000        0303201413017021472771
000002830625  C416250C2883982              920311075096DOREEN LEW CIA SIN                                                              003206710000000000000000        0303201402057022458709
000002830625  B416250B2883983IBB11030680   890326035017ELHAM FIKERI BIN ZULKIPELI                                                      003226970000000000000000        0303201412029020552516
000002830625  A416250A2883984MBA10028244   900626016172ENDOK CORAH BINTI ABDULLAH                                                      003226600000000000000000        0303201416018021336745
000002830625  A416250A2883985IBD10028318   900814115215ENGKU AHMAD MUNIR BIN ENGKU MOHAMAD                                             003226600000000000000000        0303201413017021348552
000002830625  C416250C2883986032515        910323115957ENGKU MOHD NAZRIN BIN ENGKU MOHD ADLIN                                          001043780000000000000000        0303201412113020265616
000002830625  B416250B2883987MBC11030815   900523115274ENGKU NOOR HAMIMAH BT. ENGKU HUSSIN                                             003226600000000000000000        0303201413044020910191
000002830625  C416250C2883988030829        901213115484ENGKU SHAHIRAH MAIMUNAH BINTI ENGKU HARIF                                       003219940000000000000000        0303201413017021007911
000002830625  C416250C2883989              890213016418ERNA BT NOOR HASANI                                                             003453380000000000000000        0303201401087023644034
000002830625  B416250B2883990              911026125600ERRATMA BINTI MAJOK                                                             003226970000000000000000        0303201413017021472809
000002830625  C416250C2883991              920701045132EVA TOH YVEMAY                                                                  003206710000000000000000        0303201404015020839441
000002830625  B416250B2883992030765        910210015474EVIANA BINTI DIKSI                                                              003474800000000000000000        0303201401014025151750
000002830625  D416250D2883993              940430115554EZZA NAJIHAH BINTI MAT ARIFIN                                                   002706710000000000000000        0303201413017024856721
000002830625  A416250A2883994              901114015832EZZATULQIADAH BINTI ARSAD                                                       003226600000000000000000        0303201413017021324539
000002830625  C416250C2883995              900901115328FADIANA BINTI NGAH                                                              003206710000000000000000        0303201413017020977272
000002830625  A416250A2883996              910620115742FADLIN NAJWA BINTI MAKHTAR                                                      003226600000000000000000        0303201413017021324565
000002830625  B416250B2883997              890916105548FADZILAH BINTI SHA'ARI                                                          003233750000000000000000        0303201412083020194954
000002830625  A416250A2883998MBB10028252   900917015858FAEZA BINTI JAMALUDDIN                                                          003226600000000000000000        0303201413017021348588
000002830625  B416250B2883999MBC11030138   901110115414FAEZAH BINTI ABD RAHMAN                                                         003226970000000000000000        0303201401014020439733
000002830625  C416250C2884000MBB12032881   910520016886FAEZATUL AJMAL BINTI ZAINAL                                                     003206710000000000000000        0303201413017021090145
000002830625  A416250A2884001              910731016982FAHAMAHIMA BINTI TAMAME                                                         003226600000000000000000        0303201413017021324576
000002830625  A416250A2884002              900328036271FAHRU AZWA BIN MOHD ZAIN                                                        003226600000000000000000        0303201413017021324580
000002830625  A416250A2884003              910213025467FAIREE BIN OSMAN @ AZMI                                                         003226600000000000000000        0303201413017021324591
000002830625  D416250D288400413035568      921101065468FAIRUZ ADIBAH BT MOHAMED                                                        003206710000000000000000        0303201413017021330696
000002830625  B416250B2884005              890420115179FAISAL BIN RAZALI                                                               003474800000000000000000        0303201413044020872869
000002830625  C416250C2884006              930406065025FAKHRUZAMAN BIN AHMAD NAWAWI                                                    003207400000000000000000        0303201406019020957971
000002830625  D416250D2884007              941114035362FAQIHAH BINTI MAMAT                                                             002706710000000000000000        0303201403102020125448
000002830625  D416250D2884008IBB13034966   920709025240FARAH AFIKAH BINTI ALIAS                                                        003207400000000000000000        0303201413017021330738
000002830625  A416250A2884009MBB10028023   910430115194FARAH ANA BT MAZILAN                                                            003226600000000000000000        0303201413017021324607
000002830625  A416250A2884010MBB 10027531  880608045070FARAH AZYANI BINTI DIRUS                                                        003226600000000000000000        0303201413017021324618
000002830625  C416250C2884011              930627105692FARAH HANIM BINTI ABD. HISHAM                                                   003453380000000000000000        0303201412083020316310
000002830625  D416250D2884012035440        941025035432FARAH HANIS BINTI FAUZI                                                         002706710000000000000000        0303201403090020728353
000002830625  D416250D2884013              930114025830FARAH HANNAN BT ABDULLAH                                                        002707400000000000000000        0303201402105020036583
000002830625  B416250B2884014              921005016076FARAH IZYAN BTE MESNI                                                           003226970000000000000000        0303201413017021472849
000002830625  B416250B2884015890316115646  890316115646FARAH NADIAH BINTI MOHAMAD FAUZI                                                003226600000000000000000        0303201414032020331065
000002830625  D416250D2884016              940816025738FARAH NADIRAH BINTI SHAMSHULBAHARIL                                             002706710000000000000000        0303201402020020850349
000002830625  A416250A2884017MBB10026774   910531115572FARAH NURUL AIN BINTI MOHD NASIR                                                002726600000000000000000        0303201413017021075230
000002830625  B416250B2884018030685        911201036024FARAH SHAFIQA BINTI RASIDI                                                      003226600000000000000000        0303201403036020356820
000002830625  D416250D2884019              920208086328FARAH SYUHADA BINTI ROSDI                                                       003206710000000000000000        0303201412113020302472
000002830625  C416250C2884020MBC12033189   900208105260FARAH WAHIDAH BINTI ABD RAZAK                                                   003206710000000000000000        0303201412074022103401
000002830625  D416250D2884021              941026016970FARAH ZAHIRAH BINTI MUHAMMAD FADZIL                                             002706710000000000000000        0303201405012026096928
000002830625  A416250A2884022              900822015812FARAH ZIANAH BINTI MAZNI                                                        003226600000000000000000        0303201413017021324633
000002830625  D416250D2884023035325        931126035256FARAHANIZA BT ABDULLAH                                                          002707400000000000000000        0303201403054020580163
000002830625  C416250C2884024              930810855010FARHAN AHLAAMIE BINTI PAKRUDIN                                                  001485570000000000000000        0303201403090020585825
000002830625  D416250D2884025034927        940526035575FARHAN BALQINIEY BIN LI                                                         002707400000000000000000        0303201403090020370854
000002830625  B416250B2884026030329        900225085978FARHANA AZNIN BINTI AHMAD FUAD                                                  000548240000000000000000        0303201413017021472850
000002830625  C416250C2884027              930812016480FARHANA BINTI MOHD FODZI                                                        003453380000000000000000        0303201408086020189802
000002830625  D416250D2884028034842        930606126646FARHANA BINTI SAPIRIN                                                           002707400000000000000000        0303201410016020996157
000002830625  A416250A2884029              880330525378FARHANA BINTI ZULKARNAIN                                                        003226600000000000000000        0303201413017020785446
000002830625  D416250D2884030              930227025167FARID BIN ABDUL RAZAK                                                           002707400000000000000000        0303201402011020674738
000002830625  A416250A2884031              901216035404FARIDATUL HAFIFI BINTI RAZALI                                                   003474800000000000000000        0303201403090020541753
000002830625  B416250B2884032              910515116057FARIS ISKANDAR BIN BAHARUDDIN                                                   003226600000000000000000        0303201413017021458141
000002830625  B416250B2884033              921115035876FARISAH ASMAA BT MOHD DAUD                                                      003233750000000000000000        0303201403036020882741
000002830625  D416250D2884034MBB13035633   940202016124FARIZA BT ABD.RAZAK                                                             003206710000000000000000        0303201412092022971051
000002830625  C416250C2884035              930430025656FARIZATHUL EDAYU BINTI MOHD FUAD                                                003206710000000000000000        0303201402020020794462
000002830625  B416250B2884036030372        900218065805FARIZUL HAKIM BIN MUHAMAD NOR                                                   003234140000000000000000        0303201413017020977429
000002830625  C416250C2884037              910202115504FATHIAH BINTI MOHD RIFFIN                                                       003219940000000000000000        0303201413017021215287
000002830625  B416250B2884038030811        920808035786FATIEN ELEENA BINTI JABRIDIN                                                    003226600000000000000000        0303201403018021199515
000002830625  B416250B2884039MA1014512709  920907115538FATIMA ZAHARAH BINTI ALIAS                                                      003226600000000000000000        0303201413017021472886
000002830625  A416250A2884040MBB10028237   891129065246FATIMAH AMIRAH BINTI MOHAMAD LUDIN                                              003226600000000000000000        0303201413017020888252
000002830625  B416250B2884041030410        920520085530FATIMAH NAJLA' BINTI MOHD ABD AZIZ                                              001046640000000000000000        0303201413017021472903
000002830625  A416250A2884042              881228115430FATIMAH ZAHARAH AKMA BT ABD HALIM YAP                                           003226600000000000000000        0303201413017020791761
000002830625  B416250B2884043030671        900507115194FATIMAH ZUBAIDAH BINTI RAZALE                                                   003226600000000000000000        0303201413026020355763
000002830625  D416250D2884044              940528035122FATIN ADILAH BINTI NADZRI                                                       002706710000000000000000        0303201403045022298665
000002830625  B416250B2884045IBB11030038   920603035088FATIN AFIQAH BINTI MAT HUSIN                                                    003234140000000000000000        0303201403027020674878
000002830625  B416250B2884046IBA11030756   900219035456FATIN AMALINA BINTI MOHAMED@MAHMOOD                                             003226970000000000000000        0303201403018021351455
000002830625  A416250A2884047BBA10027066   901013035324FATIN AMIRAH BINTI CHE HASIM                                                    003226600000000000000000        0303201413017021324669
000002830625  B416250B2884048              910422115418FATIN AMIRAH BINTI MOHD KHALID                                                  003226600000000000000000        0303201413017021464120
000002830625  C416250C2884049              920214035172FATIN ATIRAH BINTI MOHAMAD                                                      003206710000000000000000        0303201403018021428477
000002830625  C416250C2884050              910607115406FATIN AZWANI BINTI ZAHID @ MOHD                                                 003206710000000000000000        0303201413017021173964
000002830625  C416250C2884051              920818075036FATIN BINTI AHMAD REDZA                                                         003453380000000000000000        0303201407034024537390
000002830625  A416250A2884052              901227105076FATIN BINTI BAHARUDIN                                                           003226600000000000000000        0303201412038025413036
000002830625  D416250D2884053              910928085834FATIN FARHANA BINTI MOHD LOTIFFI                                                000543780000000000000000        0303201408086020087355
000002830625  D416250D2884054              920723145062FATIN FARHANAH BINTI RODZI                                                      003206710000000000000000        0303201413017021330817
000002830625  D416250D2884055              940813115092FATIN HAZWANI BINTI AMZAH                                                       003206710000000000000000        0303201413017028428825
000002830625  C416250C2884056              930207065700FATIN MUSFIERAH BINTI ROSLAN                                                    003453380000000000000000        0303201402020020795745
000002830625  C416250C2884057              920330115364FATIN NABILAH BINTI FAUZI                                                       003219940000000000000000        0303201413035020547093
000002830625  B416250B2884058              910316086270FATIN NADHIRAH BINTI AHMAD KHAIRUL ANUAR                                        003226600000000000000000        0303201413017021472914
000002830625  B416250B2884059              920410146064FATIN NAIEMAH BTE MOHAMAD                                                       003226600000000000000000        0303201412010024761150
000002830625  D416250D2884060              921227115678FATIN NAJWA BINTI MOHD ZAID                                                     003206710000000000000000        0303201413017021322874
000002830625  D416250D2884061              940724115234FATIN NURSHAFAZIRA BINTI KADIR @ KADIRI                                         002706710000000000000000        0303201413017028418290
000002830625  D416250D2884062              920922086296FATIN RASIDAH BINTI MOHAMAD RAZALI CHEW                                         002706710000000000000000        0303201408031020511297
000002830625  C416250C2884063              930629035616FATIN ROHANI BINTI MOHAMAD YUSOFF                                               003453380000000000000000        0303201403102020085600
000002830625  A416250A2884064              900721025712FATIN SUHAILA BINTI MOKHTAR                                                     003226600000000000000000        0303201402048020460543
000002830625  D416250D2884065              911126035792FATIN ZAFIRAH BINTI MOH FEKARI                                                  002706710000000000000000        0303201403054020384644
000002830625  A416250A2884066027721        860516295840FATIN ZUHAIRAH BINTI MUHAMMAD FAUDZI                                            003226600000000000000000        0303201403090020121765
000002830625  D416250D2884067              940101065672FATIRAH BINTI UNG FOEUT                                                         002706710000000000000000        0303201406073025352399
000002830625  C416250C2884068              920418145840FATTIN NUR NABILLAH MOHD ZAINI                                                  003206710000000000000000        0303201405049020226922
000002830625  B416250B2884069              910906106075FAUZI BIN MUHAMMAD                                                              003226600000000000000000        0303201413017021472939
000002830625  D416250D2884070              941220085304FAUZIAH BT ABDULLAH                                                             003206710000000000000000        0303201408031026598198
000002830625  D416250D2884071              940208145146FAZIHAH BINTI MOHAMAD                                                           002706710000000000000000        0303201414032025286255
000002830625  C416250C2884072MBA033242     910201065584FAZILA HUDA BT ABU BAKAR                                                        003206710000000000000000        0303201413017021090492
000002830625  A416250A2884073MBB10028203   910814125420FAZILAH BINTI ABD. HAMID                                                        003226600000000000000000        0303201413017021324681
000002830625  D416250D2884074UNISZA.P/2/AK/940604035926FAZIRA BINTI ABDUL HALIM                                                        002706710000000000000000        0303201403054020255367
000002830625  C416250C2884075              920925126986FERDAUSIA BINTI ARMAN                                                           003453380000000000000000        0303201410025020883966
000002830625  A416250A2884076              881207015967FIQRI HAZIQ BIN MOHD SUHAIMI                                                    003226600000000000000000        0303201401108020037832
000002830625  C416250C2884077              941105025736FIRAS IQBAR BINTI ABDUL RAHMAN                                                  003207400000000000000000        0303201402020020794227
000002830625  B416250B2884078DBA11029949   890116145656FUTHRI ALIA BINTI AWALUDDIN                                                     003474800000000000000000        0303201412113020172970
000002830625  D416250D2884079              930324075289GALVIN LOO WEI MING                                                             002706710000000000000000        0303201407025021250807
000002830625  A416250A2884080028221        900917045168GAN VIVIEN                                                                      003226600000000000000000        0303201413017021348631
000002830625  D416250D2884081035573        931007145516GOH LAI LING                                                                    002706710000000000000000        0303201413017028427920
000002830625  C416250C2884082              920330106345GOH SONG CHIANG                                                                 003453380000000000000000        0303201412010024817231
000002830625  D416250D2884083              910228035975HA HILMI BIN YUSOF                                                              003207400000000000000000        0303201403027020473518
000002830625  C416250C2884084              910430095082HADIBAH BINTI AZIZ                                                              003206710000000000000000        0303201409010020543972
000002830625  B416250B2884085              900206035414HAFIZAH BINTI SUHAIMI                                                           003233750000000000000000        0303201413017020977703
000002830625  B416250B2884086              920519075263HAFIZDZUL FAHMI BIN MOHD SUHAIMI                                                003226600000000000000000        0303201413017021472954
000002830625  C416250C2884087033169        911224146517HAFIZUDDIN AZFAR BIN HASSAN ADLI                                                003206710000000000000000        0303201413017021090602
000002830625  C416250C2884088              930418065508HAFIZZA BINTI ABDUL GHAPAR                                                      003453380000000000000000        0303201406028024604337
000002830625  D416250D2884089              920208035408HAINUN BINTI MUSTAPA                                                            003453380000000000000000        0303201403036020774887
000002830625  B416250B2884090LBA11030823   921201065254HALIMA ASIAH BT. KHALID                                                         003226600000000000000000        0303201413017021268259
000002830625  A416250A2884091              901116016572HALIMAH BINTI MOHAMAD                                                           003226600000000000000000        0303201413017021324712
000002830625  A416250A2884092              900226115382HALIMATU SAADIAH BINTI MUHAMMAD                                                 003226600000000000000000        0303201413044021008039
000002830625  C416250C2884093DBA12033232   910612115478HAMIDAH BINTI MOHD                                                              003453380000000000000000        0303201413017021090624
000002830625  D416250D2884094              930108135558HAMINAH BINTI SERBANG                                                           002707400000000000000000        0303201411013025932843
000002830625  C416250C2884095              930412085786HANAN 'IZZATI BINTI MANSOR                                                      000546740000000000000000        0303201402039024710394
000002830625  B416250B2884096030676        900526115376HANIS LIYANA BINTI NOORDEN                                                      003233750000000000000000        0303201413044020910385
000002830625  C416250C2884097              900405045156HANISAH BINTI HASHIM                                                            003219940000000000000000        0303201412083020195578
000002830625  D416250D2884098IBC13034941   940411065571HANNAN BIN HARUN                                                                002707400000000000000000        0303201406028024709091
000002830625  C416250C2884099              911001125612HARIYANA BINTI MOHAMAD ARIF                                                     003206710000000000000000        0303201413017021090703
000002830625  C416250C2884100              921019015824HARTIKAH BINTI AZMAN                                                            003206710000000000000000        0303201406082020138800
000002830625  A416250A2884101MBB10027416   880201115516HARTINI BINTI AHMAD                                                             003226600000000000000000        0303201413017020843324
000002830625  B416250B2884102030041        910319145117HARVINDERJIT SINGH A/L DALJIT SINGH                                             001492200000000000000000        0303201413017021473008
000002830625  B416250B2884103              920206065582HASIFAH BINTI OTHMAN                                                            003226600000000000000000        0303201413017021473019
000002830625  D416250D2884104              940819105362HASLINA BINTI WILDAN                                                            002707400000000000000000        0303201412289020022393
000002830625  C416250C2884105              910403065128HASMAH BINTI MOHD SALEH                                                         003207400000000000000000        0303201406064020106437
000002830625  C416250C2884106              911124025902HASMAHAN BINTI IBRAHIM                                                          003206710000000000000000        0303201413017021090739
000002830625  D416250D2884107              941208035232HASMIRA BINTI MAH HASSALI                                                       002707400000000000000000        0303201403054020575172
000002830625  D416250D2884108034694        940927035496HASNAHANIS BINTI SALLEH                                                         002707400000000000000000        0303201403036021037131
000002830625  B416250B2884109              910718065368HASNATUL AKMAL BINTI MAT HUSSIN                                                 003226970000000000000000        0303201403045022202165
000002830625  B416250B2884110              920801085641HASNUL AFIFI BIN ISHAK                                                          003226600000000000000000        0303201408077020241067
000002830625  C416250C2884111033147        890204115481HASYAZID BIN OSMAN                                                              003453380000000000000000        0303201413017020902951
000002830625  D416250D288411213035719      930904035910HASYIMAH BINTI CHE HUSSIN                                                       003206710000000000000000        0303201413035020592909
000002830625  D416250D2884113              940319025526HAWA NURLYANA BINTI ZAIDI                                                       002707400000000000000000        0303201402020020853014
000002830625  A416250A2884114027112        891105135748HAYATI BT DAUD                                                                  003226600000000000000000        0303201405030020129168
000002830625  B416250B2884115              910424115067HAZIM BIN CHE SU                                                                003226600000000000000000        0303201413017021473045
000002830625  B416250B2884116              920921065506HAZIMAH BINTI DERAMAN                                                           003226600000000000000000        0303201413017021473056
000002830625  C416250C2884117030493        900610085536HAZIQAH BINTI ABD LATIFF                                                        003220660000000000000000        0303201408031020414703
000002830625  A416250A2884118TBA10026980   910623155010HAZIRA HAMIZA BINTI MUSTAPA@MUSTAPHA                                            003226600000000000000000        0303201413017021324723
000002830625  D416250D2884119034682        881129565890HAZIRAH BINTI HEDZER                                                            003207400000000000000000        0303201413017021288600
000002830625  B416250B2884120              900909065038HAZIRAH BINTI HUSSIN                                                            003233750000000000000000        0303201413017020977945
000002830625  D416250D2884121              921201035098HILMIAH BINTI ABDUL AZIZ                                                        002707400000000000000000        0303201403090020356884
000002830625  B416250B2884122              930726036012HILWANI BINTI SHAHIDI                                                           003226970000000000000000        0303201403054020350990
000002830625  B416250B2884123              911122016308HONG BEE PING                                                                   003226600000000000000000        0303201413017021473109
000002830625  C416250C2884124              921020015020HUMAH DEVI A/P SIVARAJAN                                                        003206710000000000000000        0303201401087023647815
000002830625  C416250C2884125              920114055168HUSNA BINTI HASSAN                                                              003207400000000000000000        0303201403036020792975
000002830625  D416250D2884126              930706105914HUSNA BINTI ZULKIFLI                                                            002707400000000000000000        0303201402105020141224
000002830625  C416250C2884127              920615146308IFTISYA BINTI MD YUSOF                                                          003207400000000000000000        0303201413017028340625
000002830625  C416250C2884128              900127036347ILIAS BIN KAMARUZAMAN                                                           003219940000000000000000        0303201413017021090869
000002830625  B416250B2884129IBA11030780   921102035316ILYANA BT ILIAS                                                                 003226970000000000000000        0303201403072020783091
000002830625  C416250C2884130032434        930712015851ILYAS FAKHUDDIN BIN ZULKIFLI                                                    001043780000000000000000        0303201401087023643266
000002830625  C416250C2884131BBA12033190   901201126020ILYNA BINTI ISTAIN                                                              001485570000000000000000        0303201413017028341822
000002830625  B416250B2884132              921117035378IMSAAINA BINTI MOHD NA'IM                                                       003474800000000000000000        0303201413017021473150
000002830625  C416250C2884133              931010115852INTAN AMALINA BINTI MAHUSIN                                                     003453380000000000000000        0303201413017028332696
000002830625  B416250B2884134              910828095138INTAN DIANA BINTI OTHMAN                                                        003226600000000000000000        0303201413017021473161
000002830625  B416250B2884135MS1018526119  920423085870INTAN LYIANA BINTI ZAINAL ABIDIN                                                003226600000000000000000        0303201413017021473175
000002830625  B416250B2884136              901030015026INTAN MAHSURI BINTI MAT NASIR                                                   003226600000000000000000        0303201413017020978054
000002830625  D416250D2884137              940908146502INTAN SAFINAS BINTI MOHD SABRI                                                  002706710000000000000000        0303201408077020258309
000002830625  D416250D2884138              920225095082INTAN SHAMIRA BINTI TAJUDIN                                                     003207400000000000000000        0303201413017021288737
000002830625  D416250D2884139              920707146268INTAN SHARINA BINTI ZAILANI                                                     003207400000000000000000        0303201413017021330880
000002830625  D416250D2884140              931223036170INTAN ZURIANA BINTI BAIJURI                                                     002706710000000000000000        0303201403090020295880
000002830625  C416250C2884141              930429086582IRA FAZIRA BINTI TAMIZI                                                         003206710000000000000000        0303201408040028270125
000002830625  D416250D2884142MBB13035158   940427146448IRA RAIHANA BINTI ABUS KHARI                                                    002706710000000000000000        0303201412289020025136
000002830625  C416250C2884143              930904035793IRFAN MUHAIMIN BIN AZMI                                                         003207400000000000000000        0303201403045022081465
000002830625  C416250C2884144              930727055776IRISHA YASMIRA BINTI SHAH RIMAN RAJAH                                           003453380000000000000000        0303201412195020065203
000002830625  B416250B2884145              920210085789ISKANDAR ZULQARNAIN BIN MOHD RAZALI                                             003226970000000000000000        0303201413017021473197
000002830625  D416250D2884146              940606065803ISMAIL BIN IBRAHIM                                                              003207400000000000000000        0303201406028024714150
000002830625  D416250D2884147              930316025345ISMAILFATHI BIN BAKRI                                                           002706710000000000000000        0303201402011021143251
000002830625  C416250C2884148              930802075428IYLIA NUR HANIS BINTI NORRIS                                                    003206710000000000000000        0303201409010020749075
000002830625  D416250D2884149IBB13035242   920514115115IZWAN HAKIM BIN IBRAHIM                                                         001485890000000000000000        0303201413017021341183
000002830625  D416250D2884150              940528016802IZZAH HAZIRAH BINTI ROSLI                                                       002707400000000000000000        0303201401023020586441
000002830625  C416250C2884151              930306115216IZZAHTUL HANISAH BINTI AHAMAD                                                   003453380000000000000000        0303201413053020125728
000002830625  B416250B2884152              910928036004IZZATI BINTI AWANG                                                              003474800000000000000000        0303201403027020702238
000002830625  C416250C2884153032410        911120115484IZZATI INSYIRAH BINTI ZULKIFLI                                                  003207400000000000000000        0303201413017021090963
000002830625  A416250A2884154              911128115876IZZATUL FADHILAH BINTI HASHIM                                                   003226600000000000000000        0303201413017021072100
000002830625  B416250B2884155030128        920301035074JAMILAH BINTI SALEH                                                             003233750000000000000000        0303201403027020698566
000002830625  D416250D2884156034851        920508055304JAMILIN RASHIDAH BINTI ROSLI                                                    003207400000000000000000        0303201413017021288867
000002830625  B416250B2884157              910525095181JASRI BIN MAT KASA                                                              003226970000000000000000        0303201409010020692747
000002830625  B416250B2884158              850124085888JAZURAINIFARIZA BINTI JAAFAR                                                    003474800000000000000000        0303201413017021473228
000002830625  B416250B28841592010849848    920402136384JENNIELYN ANAK JENDY                                                            003474800000000000000000        0303201411013025706076
000002830625  B416250B2884160              910828075188JESINTA VELLU A/P VELLU                                                         003226600000000000000000        0303201407025021208047
000002830625  A416250A2884161              911019135798JOANNA HII AI HUNG                                                              003226600000000000000000        0303201413017021324838
000002830625  B416250B2884162              910117665034JOYCE TAI LI SZE                                                                003226600000000000000000        0303201413017021473254
000002830625  A416250A2884163LBA10027077   900508137248JOYCE YU ROU                                                                    003226600000000000000000        0303201413017021324849
000002830625  A416250A2884164              910815065968JULAIKHA BINTI MOHAMAD NAZIR                                                    003226600000000000000000        0303201413017021324853
000002830625  C416250C2884165              911208145792JULIANA BINTI JUNAIDI                                                           003206710000000000000000        0303201412122020024243
000002830625  A416250A2884166              910118126614JUMARIAH BINTI SAMSUL BAHARI                                                    003226600000000000000000        0303201413017021324864
000002830625  D416250D2884167              941231035724JUNIZA BINTI JUSOH                                                              002707400000000000000000        0303201403027020580976
000002830625  C416250C2884168032209        910814075240JURINA BINTI IDRUS                                                              003219940000000000000000        0303201407034024469925
000002830625  A416250A2884169MBC10027193   901212125592JUSTINIE BINTI JAMRIN                                                           003226600000000000000000        0303201413017021324875
000002830625  C416250C2884170              920714115718JUWAIRIYAH BINTI MOHAMAD YASIN                                                  003207400000000000000000        0303201413017028331351
000002830625  C416250C2884171              900915035871KAMARUDIN B MOHAMAD                                                             003206710000000000000000        0303201403027020518724
000002830625  D416250D2884172034516        940301086777KAMARUL IMAN BIN AHMAD SAPIAN                                                   002706710000000000000000        0303201408013023701555
000002830625  C416250C2884173              910408015509KAMARUL IZZHAR BIN MAT NOOR                                                     003206710000000000000000        0303201413017021091080
000002830625  B416250B2884174BBA10028002   880624566087KANESON A/L BHARMSOM                                                            003233750000000000000000        0303201413017021400488
000002830625  C416250C2884175              910212035321KANG CHENG CHEONG                                                               003206710000000000000000        0303201403018021427893
000002830625  B416250B2884176030134        910401095016KARIMAH BINTI ABDULLAH                                                          003233750000000000000000        0303201413017021473280
000002830625  D416250D2884177TBB12032634   920301055163KARSHAN A/L RAJENDRAN                                                           003467620000000000000000        0303201405012026044058
000002830625  C416250C2884178              920209145203KENNY KONG TZE CHUANG                                                           003206710000000000000000        0303201412122020236896
000002830625  B416250B2884179              891025065380KHADIJAH BINTI OSMAN                                                            003226600000000000000000        0303201407034020389164
000002830625  D416250D2884180              921203025408KHADIJAH FATIHAH BINTI AWANG                                                    002706710000000000000000        0303201402039024821517
000002830625  C416250C2884181              920816775020KHADIJATUL  HUSNA BINTI MOHAMAD SAFIE                                           003206710000000000000000        0303201413017028328199
000002830625  C416250C2884182032370        930219015778KHAIRAH HAMIZAH BINTI MD ASARI                                                  003219940000000000000000        0303201401041020526925
000002830625  B416250B2884183MA1013511037  920126075668KHAIRIYAH BINTI MD KAMIS                                                        003226600000000000000000        0303201413017021473318
000002830625  D416250D2884184034728        941202045181KHAIRUDDIN BIN ADAM                                                             003206710000000000000000        0303201404015020888944
000002830625  C416250C2884185032711        930923065330KHAIRUL BARIYAH BT ABD HALIM                                                    003206710000000000000000        0303201406028024669732
000002830625  C416250C2884186TBA12032844   920127105953KHAIRUL HAFIZ BIN JOHANIFF                                                      003453380000000000000000        0303201413017028346902
000002830625  D416250D2884187034576        920324105901KHAIRUL HANAFI BIN KARIM                                                        003207400000000000000000        0303201413017021289001
000002830625  C416250C2884188              931108045135KHAIRUL NIZAM BIN ROSLI                                                         003206710000000000000000        0303201404015020839373
000002830625  C416250C2884189              910529085861KHAIRUL RABBANI BIN MUSTAFFA                                                    003219940000000000000000        0303201413017021091184
000002830625  C416250C2884190MS1117678218  930809075543KHAIRUL ZARIF BIN MD AKHIR                                                      003453380000000000000000        0303201403054020528213
000002830625  C416250C2884191              920910045171KHAIRULDIN BIN SALIM                                                            003453380000000000000000        0303201404024020914669
000002830625  C416250C2884192              930825016500KHAIRUN NABILAH BINTI SAMSUDIN                                                  003206710000000000000000        0303201401032020486658
000002830625  D416250D2884193MA1217527897  941110085960KHAIRUN NAJIHAH BINTI ABD LATIP                                                 002706710000000000000000        0303201408040028317469
000002830625  B416250B2884194IBD11030275   900725125286KHAIRUN NAJWA BINTI AHMAD                                                       003226600000000000000000        0303201413017020978417
000002830625  C416250C2884195              931030065696KHAIRUN NISA BINTI ZULKEPELI                                                    003453380000000000000000        0303201402057022457276
000002830625  B416250B2884196              920127016424KHAIRUNISA BINTI SAMIAN                                                         003226600000000000000000        0303201401050020326362
000002830625  A416250A2884197              910910036110KHAIRUNNISA BINTI MAT GHANI                                                     003474800000000000000000        0303201413017021324928
000002830625  A416250A2884198              910116025334KHAIRUNNISA BINTI MOHD ROSLI                                                    003226600000000000000000        0303201413017021324932
000002830625  C416250C2884199IBD12033051   910417115050KHAIRUNNISA BINTI RAMLI                                                         003206710000000000000000        0303201413044020145506
000002830625  A416250A2884200BBA10026846   900828065343KHAM HING YIP                                                                   003226600000000000000000        0303201413017021324943
000002830625  C416250C2884201              920319095040KHOR LI XIN                                                                     003206710000000000000000        0303201402105020099587
000002830625  B416250B2884202              910313105042KONG CHIAO YEE                                                                  003474800000000000000000        0303201413017021473344
000002830625  C416250C2884203              920919105214KRITHA A/P BATUMALAI                                                            003206710000000000000000        0303201401041020521366
000002830625  D416250D2884204035298        930507035036KU NUR HAFIZAH BT KU SUHAIRI                                                    002707400000000000000000        0303201403045022301608
000002830625  D416250D2884205LBA13035008   930906086594LAI MAN YEE                                                                     003206710000000000000000        0303201408031020656526
000002830625  C416250C2884206IBC12033228   911213115504LAILA KHALIDZA BT MOHAMAD                                                       003220660000000000000000        0303201413044020151263
000002830625  B416250B2884207              910408086366LAILATUL NAIM BT MARWAN                                                         003226970000000000000000        0303201408031020570872
000002830625  C416250C2884208033059        920331015912LAILATULKADARIAH BT MUSRAP                                                      003453380000000000000000        0303201401041020529299
000002830625  B416250B2884209              911102075685LAM CHEE SENG                                                                   003474800000000000000000        0303201413017021473408
000002830625  D416250D2884210026922        920220055102LATIFAH BINTI JAMALLUDIN                                                        003207400000000000000000        0303201413017021289116
000002830625  A416250A2884211              911113035574LATIFAH DALILA BINTI MOHAMD BEKERI                                              003474800000000000000000        0303201413017021324994
000002830625  B416250B2884212              910813135723LAU SENG HUNGE                                                                  003474800000000000000000        0303201413017021473412
000002830625  C416250C2884213032165        910123145844LAVANNYA A/P MOORTHY                                                            003206710000000000000000        0303201414210020127759
000002830625  D416250D2884214BBA13034825   931024075310LAW SU HUI                                                                      002706710000000000000000        0303201407025021253937
000002830625  D416250D2884215MA1215521766  940127135827LEE FOOK HUA                                                                    002706710000000000000000        0303201411068020019457
000002830625  B416250B2884216              910219055050LEE SEET YEN                                                                    003226600000000000000000        0303201413017021473459
000002830625  D416250D2884217              920421085674LEE WAN PENG                                                                    003206710000000000000000        0303201408031020511520
000002830625  C416250C2884218              920914015666LEE YI LING                                                                     003453380000000000000000        0303201401023020535739
000002830625  C416250C2884219IBB11030600   910715126444LIA JULYANA                                                                     003221140000000000000000        0303201413017021473485
000002830625  C416250C2884220MBA12032191   921213145112LILI ROZITA BINTI KISMAN                                                        003206710000000000000000        0303201412140020087333
000002830625  D416250D2884221              930905016527LIM WEI LIE                                                                     002706710000000000000000        0303201401023020584260
000002830625  B416250B2884222              910428065669LIONG WAI HOW                                                                   003226600000000000000000        0303201413017021473513
000002830625  B416250B2884223              910315055085LIU ZHI CHERN                                                                   003226600000000000000000        0303201405012025984204
000002830625  C416250C2884224TBB12032176   920221135999LO CHII TOH                                                                     003453380000000000000000        0303201411031022034785
000002830625  B416250B2884225              910718015950LOW YEE LIN                                                                     003226600000000000000000        0303201413017021473549
000002830625  B416250B2884226              911129055406LUM WEI KEEN                                                                    003226600000000000000000        0303201413017021473553
000002830625  C416250C2884227032759        910105105961LUQMAN HAKIM BIN ISHAK                                                          003206710000000000000000        0303201412056022506769
000002830625  D416250D2884228              940331075497LUQMANULHAKIM BIN CHE ARIF                                                      002707400000000000000000        0303201407052020290717
000002830625  B416250B2884229              910831106264LUSHANI A/P RAMANATHAN                                                          001492200000000000000000        0303201413017021473564
000002830625  C416250C2884230032396        920424125520LYALISA JUANIS                                                                  003206710000000000000000        0303201410016020927451
000002830625  D416250D2884231MA1219540811  941001065514MA NORFAHANIS BINTI KAMARUDIN                                                   002706710000000000000000        0303201406037023155855
000002830625  D416250D2884232IDA10027432   921108115456MADIAH BINTI MAZLAN                                                             003207400000000000000000        0303201413017021289178
000002830625  D416250D2884233              930726065892MAH KAR MEN                                                                     003206710000000000000000        0303201406028024713079
000002830625  C416250C2884234032804        910618035831MAHADI BIN IBRAHIM                                                              003206710000000000000000        0303201403018021106297
000002830625  A416250A2884235MBB10027912   910703065170MAHFUZAH BINTI MUHAMAD                                                          003226600000000000000000        0303201413017021325074
000002830625  D416250D2884236034552        930203085288MAHIRA BINTI MAYADI                                                             002706710000000000000000        0303201412186020016881
000002830625  B416250B2884237029849        910313125414MAHIRAH BINTI BONGSU                                                            003226970000000000000000        0303201410016020823412
000002830625  C416250C2884238              911002045286MAHIRAH BINTI SAHARUDIN                                                         003219940000000000000000        0303201404024020793671
000002830625  D416250D2884239034660        920424085362MAHSYITAH BINTI AMIDIN                                                          002707400000000000000000        0303201413017021330969
000002830625  D416250D2884240034530        910917025174MAISARAH BINTI AHMAD FADZIL                                                     002707400000000000000000        0303201406064021140802
000002830625  C416250C2884241032935        910223146094MAISARAH BINTI MAZLAN                                                           003206710000000000000000        0303201403036020668976
000002830625  D416250D2884242035787        920330085142MAISARAH BT MOHAMAD KASASI                                                      003207400000000000000000        0303201413017021289182
000002830625  D416250D2884243MA1213513851  940314075540MAIZATUL HAFIFAH BINTI MARZUKI                                                  002706710000000000000000        0303201407034024570719
000002830625  D416250D2884244035042        920328105554MAIZATUL SHIMA BINTI MOHAMAD                                                    003207400000000000000000        0303201413017021289210
000002830625  C416250C2884245              931218017004MAIZATUL SYAHIRAH BINTI MOHMAD                                                  003453380000000000000000        0303201401108020181485
000002830625  D416250D2884246MBB13035046   910319105852MARDHA ELYA BINTI MULIS                                                         002706710000000000000000        0303201413017028428357
000002830625  D416250D2884247              940622106302MARDHIATHI BINTI BAHARUDIN                                                      002707400000000000000000        0303201412083020386213
000002830625  D416250D2884248              910104075510MARIAM JAMILAH BINTI AB HALIM                                                   002707400000000000000000        0303201402057022339000
000002830625  C416250C2884249              900413035898MARIANA BINTI ZAKARIA                                                           003219940000000000000000        0303201403054020138775
000002830625  D416250D2884250LBA12033238   931222065252MARIANI                                                                         003219940000000000000000        0303201406082020074803
000002830625  D416250D2884251MBB13035513   940523145672MARYAM 'AZRA' BINTI ABDUL HAMID                                                 000100000000000000000000        0303201412029020827735
000002830625  A416250A2884252              901124055424MASFAH BINTI SALEH                                                              003226600000000000000000        0303201413017021325113
000002830625  D416250D2884253              930517146012MASHITAH BINTI YUSOFF                                                           002706710000000000000000        0303201414014021165948
000002830625  C416250C2884254033212        911207065010MASRA'UMIRA BINTI ABD RAHIM                                                     003206710000000000000000        0303201413017021091468
000002830625  C416250C2884255              911204035596MASTURA AYU BINTI MOHD RUSLI                                                    003206710000000000000000        0303201403036020593081
000002830625  B416250B2884256              900723055050MASYITAH BINTI MAT JALIL                                                        003226600000000000000000        0303201413017020978806
000002830625  B416250B2884257030702        911124115019MAT YUSOF BIN MAT RANI                                                          003226600000000000000000        0303201413017024803204
000002830625  A416250A2884258              900826085105MATTHEWS A/L JUDE                                                               003226600000000000000000        0303201413017021325127
000002830625  B416250B2884259              910629015086MAYA TAUFANI BINTI ROMA                                                         003226600000000000000000        0303201413017021473586
000002830625  C416250C2884260033229        910523115804MAYASSARAH BINTI MAMAT                                                          003207400000000000000000        0303201413017021162375
000002830625  B416250B2884261              900110105297MAZLAN BIN OTHMAN                                                               003233750000000000000000        0303201413017020978843
000002830625  B416250B2884262030392        911225135465MAZLAN BIN SUUD                                                                 003226970000000000000000        0303201413017021473606
000002830625  D416250D2884263MBC13034634   921124127529MD ASDI BIN HAMDI                                                               002706710000000000000000        0303201410025020799234
000002830625  B416250B2884264MBA11030015   890213015466MEGAWATI BINTI BUSTAMIN                                                         003226600000000000000000        0303201408013023377242
000002830625  D416250D2884265              930528075555MEHARAJ A/L SELVARAJOO                                                          002706710000000000000000        0303201407034024575216
000002830625  C416250C2884266              930802075233MOHAMAD AKMAL BIN ISMAIL                                                        003453380000000000000000        0303201402057022462487
000002830625  D416250D2884267IBC13035652   930808115021MOHAMAD ALAUDDIN BIN AWANG                                                      003207400000000000000000        0303201413017028429010
000002830625  D416250D2884268DBA13034777   920121016191MOHAMAD ALIFF ZULHELMI BIN TAJUDIN                                              003453380000000000000000        0303201413017021331027
000002830625  C416250C2884269032329        910724085947MOHAMAD AMIR HAKIM BIN MOHAMAD RASHID                                           003219940000000000000000        0303201408031020443869
000002830625  C416250C2884270032827        920326086783MOHAMAD AMIRUDIN BIN ADNAN                                                      003453380000000000000000        0303201402057022460591
000002830625  D416250D2884271              930725145911MOHAMAD AMIRUL SHAH MOHAMAD AMIN                                                002707400000000000000000        0303201402105020048162
000002830625  B416250B2884272030817        901127016711MOHAMAD ARIF AIMRAN BIN AHMAD                                                   003226600000000000000000        0303201413017021005935
000002830625  C416250C2884273032734        930130125591MOHAMAD ARIF BIN SAKKA                                                          003206710000000000000000        0303201410025020878902
000002830625  B416250B2884274              900416115447MOHAMAD ASRULKHAMAL BIN MOHD SUHAIMI                                            003226970000000000000000        0303201413017021473632
000002830625  B416250B2884275              910715135623MOHAMAD AZAHAR BIN SAIF                                                         003226600000000000000000        0303201413017021473643
000002830625  B416250B2884276030270        900414085475MOHAMAD AZAM BIN MOHAMED ADAM                                                   003233750000000000000000        0303201413017020978936
000002830625  B416250B2884277              900828016939MOHAMAD AZHAR BIN MISNI                                                         003226600000000000000000        0303201413017021005921
000002830625  D416250D2884278DBA13035307   920906115667MOHAMAD AZIZUDDIN BIN ALI                                                       003453380000000000000000        0303201413017021331038
000002830625  B416250B2884279              920331036027MOHAMAD AZIZUL HAKIM BIN MOHD NOOR                                              003226600000000000000000        0303201403045022131453
