000000000025A C1002201435
000002820625A C41625AC2866388032048        940207035076ADILA BINTI MOHAMAD                                                             002476870000000000000000        2802201408059020277142
000002820625A D41625AD2866389034178        950722115694ADILA SYAHIDAH BINTI MAT RASID                                                  002476870000000000000000        2802201413053020168903
000002820625A C41625AC2866390032102        940727115408ALWADIAH SYAHMINA BINTI HARUN                                                   002477430000000000000000        2802201413017028327711
000002820625A D41625AD2866391034150        951229015854AN NASAHAH BINTI AZMEE KHAN                                                     001976870000000000000000        2802201401135020062456
000002820625A C41625AC2866392031919        940822045532AZIMAH BINTI ABDUL MANAF                                                        002476870000000000000000        2802201404033020263987
000002820625A D41625AD2866393              950206036578DORAFIRA ANAK GUMA @ GIROW                                                      002476870000000000000000        2802201411022022319316
000002820625A C41625AC2866394              940725105468FARAH IZZATI BINTI HAMZAH                                                       002476870000000000000000        2802201412010024797051
000002820625A D41625AD2866395033725        950718025872FATHIN HANIS BINTI MOHD FAUZI                                                   002476870000000000000000        2802201402020020833340
000002820625A C41625AC2866396031186        941006065492FATIHIN AZ ZAHRA BT AHMAD                                                       001243060000000000000000        2802201406073025330330
000002820625A D41625AD2866397HDA13034463   950713115094FATIN AMANINA NAJIHAH BINTI NORDIN                                              002476870000000000000000        2802201413053020174764
000002820625A B41625AB2866398029335        930318115352FATIN NABILA BINTI CHE JOHAN                                                    002487500000000000000000        2802201413017021426293
000002820625A B41625AB2866399029666        930516115230FATIN NURAINA BINTI GHAZALI                                                     002487500000000000000000        2802201413017024803472
000002820625A C41625AC2866400              940929095038FYSHA AREENA BINTI NORAFENDI                                                    002476870000000000000000        2802201409010020728418
000002820625A D41625AD2866401034408        950905115718HAIDA WADHIHAH HARYANI BINTI MOHD ZAILI                                         002476870000000000000000        2802201413044021172152
000002820625A D41625AD2866402033997        950317115762HAJIDAH BINTI MOHD YAHAYA                                                       001976870000000000000000        2802201413053020165539
000002820625A D41625AD2866403033749        951023095182KU NOR SHAHIDA BINTI KU MOHD NASIR                                              001976870000000000000000        2802201402105020126802
000002820625A C41625AC2866404031430        940920055494LILYANA BT MANSOR                                                               002476870000000000000000        2802201405012026031926
000002820625A B41625AB2866405029206        930128085404MASTURA BINTI MOHD ZAINI                                                        002487500000000000000000        2802201408040028208223
000002820625A B41625AB2866406              930310065282MAZLIZA BINTI NASIR                                                             002487500000000000000000        2802201406055020272060
000002820625A B41625AB2866407HDA 11028988  930211115280MAZNI FAJRINA BINTI MAHTAR                                                      002487500000000000000000        2802201413017021427402
000002820625A B41625AB2866408029679        930710115429MOHAMAD FIRDAUS BIN RAZALI                                                      002487500000000000000000        2802201413017021457232
000002820625A D41625AD2866409033644        950430035115MOHAMAD HAFIZ BIN ABDULLAH                                                      002476870000000000000000        2802201403090020716878
000002820625A D41625AD2866410              950127065813MOHAMAD IKMAL BIN NAHAR AZMI                                                    001976870000000000000000        2802201406046020270532
000002820625A B41625AB2866411              930723055111MOHAMAD SYAFIQ BIN MOHD NOH                                                     002487500000000000000000        2802201413017021419159
000002820625A C41625AC2866412              940828015705MOHD RAFIUDDIN BIN JOHARI                                                       002476870000000000000000        2802201401050020358250
000002820625A D41625AD2866413034300        950727115271MUHAMAD LUQMAN NUR HAKIM BIN MUSLIM                                             002476870000000000000000        2802201413017028411640
000002820625A D41625AD2866414034120        950415036435MUHAMMAD AFIF BIN MAZELAN                                                       000497220000000000000000        2802201403054020566178
000002820625A C41625AC2866415              940830045559MUHAMMAD AZRI BIN JUNID                                                         002476870000000000000000        2802201404024020907331
000002820625A C41625AC2866416HDA12031204   941022026055MUHAMMAD SYAUQI NAIM BIN AHMAD SUKRAN                                           002476870000000000000000        2802201402075020344587
000002820625A D41625AD2866417034256        950302115196NABILAH BT CHE RAHIM                                                            002476870000000000000000        2802201413017028406984
000002820625A C41625AC2866418HDA12031350   941028035286NIK NOOR AZNIRA BT MOHD ASHARI                                                  001977430000000000000000        2802201403018021407068
000002820625A D41625AD2866419HDA13034355   950701035388NIK NORSHAHIRA BINTI MOHD ZAIN                                                  002476870000000000000000        2802201403018021485614
000002820625A B41625AB2866420029628        931118115678NIK NURAININA SYUHADA BINTI NIK MUKHTAR                                         002487500000000000000000        2802201413017021446861
000002820625A C41625AC2866421HDA12031911   940807036208NIK NURDAYANA BINTI NIK MOHAMAD FAD'LULLAH SUHAIMI                              001977430000000000000000        2802201413017028317082
000002820625A D41625AD2866422033988        951002065232NINA MUSHASHA BT MUHAMMAD NOOR                                                  001976870000000000000000        2802201406064021189783
000002820625A D41625AD2866423              950818085282NISA ADILA BINTI MOHD FAUZI                                                     001976870000000000000000        2802201408077020283102
000002820625A C41625AC2866424HDA12031301   940908035466NOOR ASMIDA BINTI ALIAS                                                         002476870000000000000000        2802201403045022238754
000002820625A D41625AD2866425033944        950325016182NOOR AZLIN BINTI MASKAM                                                         001976870000000000000000        2802201401069020346203
000002820625A D41625AD2866426              950203035246NOOR FAZIRA BINTI ZAHARI                                                        001976870000000000000000        2802201403036021016727
000002820625A D41625AD2866427034049        950328115354NOOR HANIZA BINTI MOHAMAD RIZAN @ MOHAMAD RIZA                                  001976870000000000000000        2802201413044021172062
000002820625A C41625AC286642812032010      941212065688NOOR HASIMAH BINTI MOHD ALUWI                                                   002477430000000000000000        2802201413017028322851
000002820625A B41625AB2866429              931024086124NOOR SYAIDAH BINTI MOHAMMAD NAHRAWI                                             002487500000000000000000        2802201408031020554580
000002820625A C41625AC2866430              941016065402NOR ADIBAH BINTI MOHD RAZALI                                                    002476870000000000000000        2802201406073025329845
000002820625A B41625AB2866431029497        930125115452NOR AZUANITA BINTI MOHD NOOR                                                    002487500000000000000000        2802201413017021430828
000002820625A C41625AC2866432              940312065250NOR FAEZZAH BINTI BEDU                                                          002476870000000000000000        2802201406028024652207
000002820625A C41625AC2866433032101        940903115686NOR FAJARIAH BINTI ALWI                                                         002477430000000000000000        2802201413017024832176
000002820625A C41625AC2866434032107        941208035822NOR FATIHAH BINTI MOHAMAD                                                       002477430000000000000000        2802201403018021190379
000002820625A C41625AC2866435031786        940103035370NOR HAMIMAH BT MOHD HASHIM                                                      001977430000000000000000        2802201403036020943356
000002820625A D41625AD2866436034227        950801115342NOR SUHADA BT HARUN                                                             002476870000000000000000        2802201413017028407396
000002820625A D41625AD2866437HDA13034410   951103115366NOR SUHAILA BINTI YUSMAN                                                        002476870000000000000000        2802201413053020175906
000002820625A C41625AC2866438030237        941204035526NOR SUHANA BINTI AZM                                                            001977430000000000000000        2802201403054020521665
000002820625A C41625AC2866439              940916016038NORAFIFA BINTI AZHAR                                                            002476870000000000000000        2802201401032020475501
000002820625A D41625AD2866440              950529018032NORAIN BINTI MOHAMED                                                            002476870000000000000000        2802201401023020570758
000002820625A C41625AC2866441              940411115516NORAISHAHTUN BINTI JAHSMI                                                       002476870000000000000000        2802201413044021096381
000002820625A C41625AC2866442031415        940519016878NORHARYATI BINTI MOHMAD ZAILANI                                                 002476870000000000000000        2802201401014025173309
000002820625A B41625AB2866443              930326035344NORIZZATI NADZIRAH BINTI ABU BAKAR                                              002487500000000000000000        2802201413017021431510
000002820625A C41625AC2866444HDA12032014   940328065474NUR ADIBAH BINTI AHMAD YUSOF                                                    002476870000000000000000        2802201406028024659996
000002820625A D41625AD2866445033434        950216085920NUR AFIQAH BT KADRI                                                             002476870000000000000000        2802201408031020644846
000002820625A C41625AC2866446HDA12031722   940703115550NUR AIN FARINA BINTI ZAKARAI                                                    002477430000000000000000        2802201413017028312870
000002820625A D41625AD2866447034339        950725115286NUR AINI ASYIFA BINTI MOHD ARIFIN                                               002476870000000000000000        2802201413017028406608
000002820625A C41625AC2866448031584        941020045244NUR ALIAH BINTI ZAKARIA                                                         000188880000000000000000        2802201407034024531192
000002820625A B41625AB2866449              930923016694NUR AMALINA BINTI SUKAIME                                                       002487500000000000000000        2802201413017021431921
000002820625A B41625AB2866450028898        930325035238NUR ATIQAH BT MOHD AZLAN                                                        002487500000000000000000        2802201413017021432167
000002820625A D41625AD2866451033459        951015035622NUR AZIMAH BINTI MHD ROSLIN                                                     001976870000000000000000        2802201401032020525745
000002820625A B41625AB2866452HDA11029196   930720086270NUR FAIZAH BINTI MOHAMMAD                                                       002487500000000000000000        2802201413017021433386
000002820625A D41625AD2866453033764        951127115934NUR HAMI AFIFAH BINTI MOHD AZAHARI                                              001976870000000000000000        2802201413053020167242
000002820625A D41625AD2866454033599        950615155068NUR HANISAH BINTI MUSTAPA                                                       001976870000000000000000        2802201408077020281487
000002820625A D41625AD2866455033945        950921065538NUR INTAN MARDHIAH BINTI MOHD AMIR                                              002476870000000000000000        2802201406073025348427
000002820625A D41625AD2866456HDA13033870   951010146112NUR ISSAKIAH BINTI MAT IRSAR                                                    001976870000000000000000        2802201404024020937711
000002820625A B41625AB2866457029307        930727035732NUR IWANI BT MOHD KAMAL                                                         002487500000000000000000        2802201413017021432556
000002820625A D41625AD2866458HDB13034260   951225015128NUR NABIHA BINTI AHMAD                                                          002476870000000000000000        2802201401032020529784
000002820625A D41625AD2866459HDA13034298   950425115436NUR SHAHIRAH BINTI ABU AZIZ                                                     002476870000000000000000        2802201413017028406529
000002820625A D41625AD2866460              950518115304NUR SHAIRAH BINTI SURIA                                                         002476870000000000000000        2802201413017028402967
000002820625A B41625AB2866461              930506035026NUR SHAKIRA NAZLEEN BINTI MAT NAWI                                              002487500000000000000000        2802201413017021432971
000002820625A B41625AB2866462              930327025316NUR SYAFIRAH BINTI FADZIL                                                       002487500000000000000000        2802201402084020307490
000002820625A B41625AB2866463029564        931107115680NUR SYAHIRAH BINTI RAZALI                                                       002487500000000000000000        2802201413017021454920
000002820625A D41625AD2866464033876        951006017916NUR SYAKILA OKTAVIA BINTI RASOL                                                 001976870000000000000000        2802201401023020564912
000002820625A B41625AB2866465028829        930720016512NUR'AININA BINTI NORDEN                                                         002487500000000000000000        2802201413017021433223
000002820625A B41625AB2866466029631        931114035398NURAMIRA SHAZLINDA BINTI MEHAT                                                  002487500000000000000000        2802201403090020296464
000002820625A D41625AD2866467033899        950926085706NURAZIAH AMALINA BINTI MASHOD                                                   001976870000000000000000        2802201408013023804868
000002820625A D41625AD2866468034466        950202115404NURFATHIAH BINTI HARUN                                                          002476870000000000000000        2802201413053020175910
000002820625A C41625AC2866469              940128085120NURHAFIZA BINTI KAMARUDDIN                                                      002476870000000000000000        2802201403045022224139
000002820625A C41625AC2866470HDA12032094   940206115496NURHANI ATHIRAH BT SHAMSUDIN                                                    000497340000000000000000        2802201413017028322930
000002820625A C41625AC2866471032093        941202115020NURUL AIN BINTI MOHD ROZAKI                                                     002476870000000000000000        2802201413044021131263
000002820625A C41625AC2866472031514        940904036250NURUL AIN THAHIRAH BINTI MOHD NOOR                                              002476870000000000000000        2802201403111020044443
000002820625A D41625AD2866473HDA12032111   940325065524NURUL AMIRA BINTI NADZRI                                                        002487050000000000000000        2802201405021020299791
000002820625A D41625AD2866474034010        950125025420NURUL ASNIDA BINTI MUHAMAD JABIR                                                001976870000000000000000        2802201402075020379681
000002820625A D41625AD2866475HDB 13034247  950809115056NURUL ATHIRAH BINTI SAIDI                                                       002476870000000000000000        2802201413017028411583
000002820625A C41625AC2866476              941023115156NURUL FARA AKIERA BINTI MAZMIN                                                  002476870000000000000000        2802201403063020248556
000002820625A B41625AB2866477029006        930703035236NURUL FATEHAH BINTI ABD RAHIM                                                   002487500000000000000000        2802201413017021434168
000002820625A D41625AD2866478HDA13034327   950725065194NURUL NADIA BINTI RUSLAN                                                        002476870000000000000000        2802201412010024857042
000002820625A B41625AB2866479029101        930119025290NURUL NAJWA BINTI MAHAMAD NAIM                                                  002487500000000000000000        2802201402105020043628
000002820625A B41625AB2866480029566        931112115220NURUL NATIYYAH FASHIHAH BINTI MUHAMAD SUKRI                                     002487500000000000000000        2802201413017021457268
000002820625A D41625AD2866481033581        950622115240NURUL SAADAH BT ABDULLAH                                                        001976870000000000000000        2802201413053020167394
000002820625A B41625AB2866482HDA11029621   931203115154NURUL SHAHIDA BINTI SAIFUDDIN                                                   002487500000000000000000        2802201413017021458465
000002820625A C41625AC2866483HDA12032084   941127115564NURUL SYAMIMI BT HUSSIN                                                         002477430000000000000000        2802201413053020121207
000002820625A B41625AB2866484              930924075506NURULAIN BINTI GHAZALI                                                          002487500000000000000000        2802201413017021434715
000002820625A C41625AC2866485031587        940112115516PUTERI NUR AMALINA FASIHAH BINTI TENGAH                                         002476870000000000000000        2802201413017028319393
000002820625A B41625AB2866486              930920085600PUTERI NUR SHAHIRAH BINTI MEGAT SHAFRI                                          002487500000000000000000        2802201408013023658428
000002820625A D41625AD2866487034299        950326115430RABIATUL ADAWIYAH BINTI ROSDI                                                   002476870000000000000000        2802201413053020171696
000002820625A B41625AB2866488HDA11029267   930624036230ROSHASILLA ATINA ATINA BINTI SALLEH                                             002487500000000000000000        2802201403090020585084
000002820625A D41625AD2866489              951118125946SABTURIAH BINTI HAIROL                                                          001976870000000000000000        2802201410025020916107
000002820625A D41625AD2866490              950808055258SITI AISHAH BT MOHD ZAMRI                                                       001976870000000000000000        2802201405030020318555
000002820625A D41625AD2866491033468        950331035398SITI FARHANIS BINTI MOHAMED YUSOH                                               002476870000000000000000        2802201403102020110559
000002820625A C41625AC2866492031597        940301045078SITI HALIMAH BINTI NAOOR PITCHAI                                                002476870000000000000000        2802201405021020282670
000002820625A B41625AB2866493028963        931211106266SITI NORBAIHA BINTI TUMIRAN                                                     002487500000000000000000        2802201412083020317385
000002820625A C41625AC2866494031141        940406025786SITI NORNIESA BINTI MOHD KHIR                                                   002476870000000000000000        2802201407043020460447
000002820625A D41625AD2866495D2031         950108065148SITI NUR AISHAH BINTI MOHAMED TARMIZI                                           001976870000000000000000        2802201406055020329064
000002820625A D41625AD2866496              950608115260SITI NUR SHUHADAH BINTI MOHD SAMSUDIN                                           002476870000000000000000        2802201413017028406566
000002820625A C41625AC2866497032073        941023125610SITI NURHAFEEZAH BINTI ALI BASIR                                                001977430000000000000000        2802201410016020892054
000002820625A D41625AD2866498HDA13033845   951123075330SITI SALIHAH BINTI ABDUL HALIM                                                  001976870000000000000000        2802201407016020751247
000002820625A B41625AB2866499HDA 11029003  931223146126SITI SHAIRAH BINTI NORAHIM                                                      001246250000000000000000        2802201414032020515111
000002820625A C41625AC2866500              940127025572SITI SOFIAH BINTI AHMAD FAUZI                                                   002476870000000000000000        2802201402011021099147
000002820625A C41625AC2866501              941102035656SITI SYUAIBAH BINTI KAMARULZAMAN                                                002476870000000000000000        2802201403036020946796
000002820625A B41625AB2866502HDA11029561   930913115162SITI ZULAIKHA BINTI SAIDI                                                       002487500000000000000000        2802201413017021415707
000002820625A D41625AD2866503HDA13034338   950619115426SUHAILA AZIRA BINTI SHAHABDEEN                                                  002476870000000000000000        2802201413017028406817
000002820625A D41625AD2866504HDA13034380   950904035556TENGKU ATHIRAH BINTI TG JOHARI                                                  002476870000000000000000        2802201413017028409386
000002820625A B41625AB2866505              931113035310TENGKU NUR AINAA BT TENGKU ISKANDAR                                             002487500000000000000000        2802201413017021453763
000002820625A C41625AC2866506031959        941113115512TUAN NUR HIDAYAH BINTI TUAN ZURAIMI                                             002476870000000000000000        2802201413053020114681
000002820625A D41625AD2866507              951010035084UMI SURAYA BINTI AMRAN                                                          001976870000000000000000        2802201403018021477451
000002820625A C41625AC2866508              941119036268WAHIDAH BINTI AB WAHID                                                          002476870000000000000000        2802201403036020941355
000002820625A C41625AC2866509              940721135272WAN MARYAM BINTI JAMALUDIN                                                      002476870000000000000000        2802201408040028257554
999999999925A C000000028030178000000122