000000000025A C1002201435
000002820625A                              940207035076ADILA BINTI MOHAMAD                                                                     00098000                                          
000002820625A                              950722115694ADILA SYAHIDAH BINTI MAT RASID                                                          00098000                                          
000002820625A                              940727115408ALWADIAH SYAHMINA BINTI HARUN                                                           00098000                                          
000002820625A                              951229015854AN NASAHAH BINTI AZMEE KHAN                                                             00098000                                          
000002820625A                              940822045532AZIMAH BINTI ABDUL MANAF                                                                00098000                                          
000002820625A                              950206036578DORAFIRA ANAK GUMA @ GIROW                                                              00098000                                          
000002820625A                              940725105468FARAH IZZATI BINTI HAMZAH                                                               00098000                                          
000002820625A                              950718025872FATHIN HANIS BINTI MOHD FAUZI                                                           00098000                                          
000002820625A                              941006065492FATIHIN AZ ZAHRA BT AHMAD                                                               00098000                                          
000002820625A                              950713115094FATIN AMANINA NAJIHAH BINTI NORDIN                                                      00098000                                          
000002820625A                              930318115352FATIN NABILA BINTI CHE JOHAN                                                            00098000                                          
000002820625A                              930516115230FATIN NURAINA BINTI GHAZALI                                                             00098000                                          
000002820625A                              940929095038FYSHA AREENA BINTI NORAFENDI                                                            00098000                                          
000002820625A                              950905115718HAIDA WADHIHAH HARYANI BINTI MOHD ZAILI                                                 00098000                                          
000002820625A                              950317115762HAJIDAH BINTI MOHD YAHAYA                                                               00098000                                          
000002820625A                              951023095182KU NOR SHAHIDA BINTI KU MOHD NASIR                                                      00098000                                          
000002820625A                              940920055494LILYANA BT MANSOR                                                                       00098000                                          
000002820625A                              930128085404MASTURA BINTI MOHD ZAINI                                                                00098000                                          
000002820625A                              930310065282MAZLIZA BINTI NASIR                                                                     00098000                                          
000002820625A                              930211115280MAZNI FAJRINA BINTI MAHTAR                                                              00098000                                          
000002820625A                              930710115429MOHAMAD FIRDAUS BIN RAZALI                                                              00098000                                          
000002820625A                              950430035115MOHAMAD HAFIZ BIN ABDULLAH                                                              00098000                                          
000002820625A                              950127065813MOHAMAD IKMAL BIN NAHAR AZMI                                                            00098000                                          
000002820625A                              930723055111MOHAMAD SYAFIQ BIN MOHD NOH                                                             00098000                                          
000002820625A                              940828015705MOHD RAFIUDDIN BIN JOHARI                                                               00098000                                          
000002820625A                              950727115271MUHAMAD LUQMAN NUR HAKIM BIN MUSLIM                                                     00098000                                          
000002820625A                              950415036435MUHAMMAD AFIF BIN MAZELAN                                                               00098000                                          
000002820625A                              940830045559MUHAMMAD AZRI BIN JUNID                                                                 00098000                                          
000002820625A                              941022026055MUHAMMAD SYAUQI NAIM BIN AHMAD SUKRAN                                                   00098000                                          
000002820625A                              950302115196NABILAH BT CHE RAHIM                                                                    00098000                                          
000002820625A                              941028035286NIK NOOR AZNIRA BT MOHD ASHARI                                                          00098000                                          
000002820625A                              950701035388NIK NORSHAHIRA BINTI MOHD ZAIN                                                          00098000                                          
000002820625A                              931118115678NIK NURAININA SYUHADA BINTI NIK MUKHTAR                                                 00098000                                          
000002820625A                              940807036208NIK NURDAYANA BINTI NIK MOHAMAD FAD'LULLAH SUHAIMI                                      00098000                                          
000002820625A                              951002065232NINA MUSHASHA BT MUHAMMAD NOOR                                                          00098000                                          
000002820625A                              950818085282NISA ADILA BINTI MOHD FAUZI                                                             00098000                                          
000002820625A                              940908035466NOOR ASMIDA BINTI ALIAS                                                                 00098000                                          
000002820625A                              950325016182NOOR AZLIN BINTI MASKAM                                                                 00098000                                          
000002820625A                              950203035246NOOR FAZIRA BINTI ZAHARI                                                                00098000                                          
000002820625A                              950328115354NOOR HANIZA BINTI MOHAMAD RIZAN @ MOHAMAD RIZA                                          00098000                                          
000002820625A                              941212065688NOOR HASIMAH BINTI MOHD ALUWI                                                           00098000                                          
000002820625A                              931024086124NOOR SYAIDAH BINTI MOHAMMAD NAHRAWI                                                     00098000                                          
000002820625A                              941016065402NOR ADIBAH BINTI MOHD RAZALI                                                            00098000                                          
000002820625A                              930125115452NOR AZUANITA BINTI MOHD NOOR                                                            00098000                                          
000002820625A                              940312065250NOR FAEZZAH BINTI BEDU                                                                  00098000                                          
000002820625A                              940903115686NOR FAJARIAH BINTI ALWI                                                                 00098000                                          
000002820625A                              941208035822NOR FATIHAH BINTI MOHAMAD                                                               00098000                                          
000002820625A                              940103035370NOR HAMIMAH BT MOHD HASHIM                                                              00098000                                          
000002820625A                              950801115342NOR SUHADA BT HARUN                                                                     00098000                                          
000002820625A                              951103115366NOR SUHAILA BINTI YUSMAN                                                                00098000                                          
000002820625A                              941204035526NOR SUHANA BINTI AZM                                                                    00098000                                          
000002820625A                              940916016038NORAFIFA BINTI AZHAR                                                                    00098000                                          
000002820625A                              950529018032NORAIN BINTI MOHAMED                                                                    00098000                                          
000002820625A                              940411115516NORAISHAHTUN BINTI JAHSMI                                                               00098000                                          
000002820625A                              940519016878NORHARYATI BINTI MOHMAD ZAILANI                                                         00098000                                          
000002820625A                              930326035344NORIZZATI NADZIRAH BINTI ABU BAKAR                                                      00098000                                          
000002820625A                              940328065474NUR ADIBAH BINTI AHMAD YUSOF                                                            00098000                                          
000002820625A                              950216085920NUR AFIQAH BT KADRI                                                                     00098000                                          
000002820625A                              940703115550NUR AIN FARINA BINTI ZAKARAI                                                            00098000                                          
000002820625A                              950725115286NUR AINI ASYIFA BINTI MOHD ARIFIN                                                       00098000                                          
000002820625A                              941020045244NUR ALIAH BINTI ZAKARIA                                                                 00098000                                          
000002820625A                              930923016694NUR AMALINA BINTI SUKAIME                                                               00098000                                          
000002820625A                              930325035238NUR ATIQAH BT MOHD AZLAN                                                                00098000                                          
000002820625A                              951015035622NUR AZIMAH BINTI MHD ROSLIN                                                             00098000                                          
000002820625A                              930720086270NUR FAIZAH BINTI MOHAMMAD                                                               00098000                                          
000002820625A                              951127115934NUR HAMI AFIFAH BINTI MOHD AZAHARI                                                      00098000                                          
000002820625A                              950615155068NUR HANISAH BINTI MUSTAPA                                                               00098000                                          
000002820625A                              950921065538NUR INTAN MARDHIAH BINTI MOHD AMIR                                                      00098000                                          
000002820625A                              951010146112NUR ISSAKIAH BINTI MAT IRSAR                                                            00098000                                          
000002820625A                              930727035732NUR IWANI BT MOHD KAMAL                                                                 00098000                                          
000002820625A                              951225015128NUR NABIHA BINTI AHMAD                                                                  00098000                                          
000002820625A                              950425115436NUR SHAHIRAH BINTI ABU AZIZ                                                             00098000                                          
000002820625A                              950518115304NUR SHAIRAH BINTI SURIA                                                                 00098000                                          
000002820625A                              930506035026NUR SHAKIRA NAZLEEN BINTI MAT NAWI                                                      00098000                                          
000002820625A                              930327025316NUR SYAFIRAH BINTI FADZIL                                                               00098000                                          
000002820625A                              931107115680NUR SYAHIRAH BINTI RAZALI                                                               00098000                                          
000002820625A                              951006017916NUR SYAKILA OKTAVIA BINTI RASOL                                                         00098000                                          
000002820625A                              930720016512NUR'AININA BINTI NORDEN                                                                 00098000                                          
000002820625A                              931114035398NURAMIRA SHAZLINDA BINTI MEHAT                                                          00098000                                          
000002820625A                              950926085706NURAZIAH AMALINA BINTI MASHOD                                                           00098000                                          
000002820625A                              950202115404NURFATHIAH BINTI HARUN                                                                  00098000                                          
000002820625A                              940128085120NURHAFIZA BINTI KAMARUDDIN                                                              00098000                                          
000002820625A                              940206115496NURHANI ATHIRAH BT SHAMSUDIN                                                            00098000                                          
000002820625A                              941202115020NURUL AIN BINTI MOHD ROZAKI                                                             00098000                                          
000002820625A                              940904036250NURUL AIN THAHIRAH BINTI MOHD NOOR                                                      00098000                                          
000002820625A                              940325065524NURUL AMIRA BINTI NADZRI                                                                00098000                                          
000002820625A                              950125025420NURUL ASNIDA BINTI MUHAMAD JABIR                                                        00098000                                          
000002820625A                              950809115056NURUL ATHIRAH BINTI SAIDI                                                               00098000                                          
000002820625A                              941023115156NURUL FARA AKIERA BINTI MAZMIN                                                          00098000                                          
000002820625A                              930703035236NURUL FATEHAH BINTI ABD RAHIM                                                           00098000                                          
000002820625A                              950725065194NURUL NADIA BINTI RUSLAN                                                                00098000                                          
000002820625A                              930119025290NURUL NAJWA BINTI MAHAMAD NAIM                                                          00098000                                          
000002820625A                              931112115220NURUL NATIYYAH FASHIHAH BINTI MUHAMAD SUKRI                                             00098000                                          
000002820625A                              950622115240NURUL SAADAH BT ABDULLAH                                                                00098000                                          
000002820625A                              931203115154NURUL SHAHIDA BINTI SAIFUDDIN                                                           00098000                                          
000002820625A                              941127115564NURUL SYAMIMI BT HUSSIN                                                                 00098000                                          
000002820625A                              930924075506NURULAIN BINTI GHAZALI                                                                  00098000                                          
000002820625A                              940112115516PUTERI NUR AMALINA FASIHAH BINTI TENGAH                                                 00098000                                          
000002820625A                              930920085600PUTERI NUR SHAHIRAH BINTI MEGAT SHAFRI                                                  00098000                                          
000002820625A                              950326115430RABIATUL ADAWIYAH BINTI ROSDI                                                           00098000                                          
000002820625A                              930624036230ROSHASILLA ATINA ATINA BINTI SALLEH                                                     00098000                                          
000002820625A                              951118125946SABTURIAH BINTI HAIROL                                                                  00098000                                          
000002820625A                              950808055258SITI AISHAH BT MOHD ZAMRI                                                               00098000                                          
000002820625A                              950331035398SITI FARHANIS BINTI MOHAMED YUSOH                                                       00098000                                          
000002820625A                              940301045078SITI HALIMAH BINTI NAOOR PITCHAI                                                        00098000                                          
000002820625A                              931211106266SITI NORBAIHA BINTI TUMIRAN                                                             00098000                                          
000002820625A                              940406025786SITI NORNIESA BINTI MOHD KHIR                                                           00098000                                          
000002820625A                              950108065148SITI NUR AISHAH BINTI MOHAMED TARMIZI                                                   00098000                                          
000002820625A                              950608115260SITI NUR SHUHADAH BINTI MOHD SAMSUDIN                                                   00098000                                          
000002820625A                              941023125610SITI NURHAFEEZAH BINTI ALI BASIR                                                        00098000                                          
000002820625A                              951123075330SITI SALIHAH BINTI ABDUL HALIM                                                          00098000                                          
000002820625A                              931223146126SITI SHAIRAH BINTI NORAHIM                                                              00098000                                          
000002820625A                              940127025572SITI SOFIAH BINTI AHMAD FAUZI                                                           00098000                                          
000002820625A                              941102035656SITI SYUAIBAH BINTI KAMARULZAMAN                                                        00098000                                          
000002820625A                              930913115162SITI ZULAIKHA BINTI SAIDI                                                               00098000                                          
000002820625A                              950619115426SUHAILA AZIRA BINTI SHAHABDEEN                                                          00098000                                          
000002820625A                              950904035556TENGKU ATHIRAH BINTI TG JOHARI                                                          00098000                                          
000002820625A                              931113035310TENGKU NUR AINAA BT TENGKU ISKANDAR                                                     00098000                                          
000002820625A                              941113115512TUAN NUR HIDAYAH BINTI TUAN ZURAIMI                                                     00098000                                          
000002820625A                              951010035084UMI SURAYA BINTI AMRAN                                                                  00098000                                          
000002820625A                              941119036268WAHIDAH BINTI AB WAHID                                                                  00098000                                          
000002820625A                              940721135272WAN MARYAM BINTI JAMALUDIN                                                              00098000                                          
999999999925A C000000000118580000000122
